:100000008044002031310000839E00001D3100003B
:100010001D3100001D3100001D31000000000000F6
:100020000000000000000000000000009932000005
:100030001D31000000000000393200001D310000B9
:100040002D3400002D3400002D3400002D3400002C
:100050002D3400002D3400002D3400002D3400001C
:100060002D3400002D3400002D3400002D3400000C
:100070002D3400002D3400002D3400002D340000FC
:100080002D3400002D3400002D3400002D340000EC
:100090002D3400002D3400002D3400002D340000DC
:1000A0002D3400002D3400002D3400002D340000CC
:1000B0002D3400002D3400002D3400002D340000BC
:1000C0002D3400002D3400002D3400002D340000AC
:1000D0002D3400002D3400002D3400002D3400009C
:1000E0002D3400002D3400002D3400002D3400008C
:1000F0002D3400002D3400002D3400002D3400007C
:1001000081F0004102E000BF83F0004330B54FEAC8
:1001100041044FEA430594EA050F08BF90EA020F35
:100120001FBF54EA000C55EA020C7FEA645C7FEAC8
:10013000655C00F0E2804FEA5454D4EB5555B8BFEB
:100140006D420CDD2C4480EA020281EA030382EA5C
:10015000000083EA010180EA020281EA0303362DEE
:1001600088BF30BD11F0004F4FEA01314FF4801CC1
:100170004CEA113102D0404261EB410113F0004FD3
:100180004FEA03334CEA133302D0524263EB43038A
:1001900094EA050F00F0A780A4F10104D5F1200E28
:1001A0000DDB02FA0EFC22FA05F2801841F1000183
:1001B00003FA0EF2801843FA05F359410EE0A5F157
:1001C00020050EF1200E012A03FA0EFC28BF4CF088
:1001D000020C43FA05F3C01851EBE37101F000453E
:1001E00007D54FF0000EDCF1000C7EEB00006EEB4B
:1001F0000101B1F5801F1BD3B1F5001F0CD34908D5
:100200005FEA30004FEA3C0C04F101044FEA44522B
:1002100012F5800F80F09A80BCF1004F08BF5FEAB2
:10022000500C50F1000041EB045141EA050130BD92
:100230005FEA4C0C404141EB0101013C28BFB1F5A4
:10024000801FE9D291F0000F04BF01460020B1FAEF
:1002500081F308BF2033A3F10B03B3F120020CDAC2
:100260000C3208DD02F1140CC2F10C0201FA0CF0A0
:1002700021FA02F10CE002F11402D8BFC2F1200C05
:1002800001FA02F120FA0CFCDCBF41EA0C019040BB
:10029000E41AA2BF01EB0451294330BD6FEA040404
:1002A0001F3C1CDA0C340EDC04F11404C4F12002EF
:1002B00020FA04F001FA02F340EA030021FA04F301
:1002C00045EA030130BDC4F10C04C4F1200220FA58
:1002D00002F001FA04F340EA0300294630BD21FA96
:1002E00004F0294630BD94F0000F83F4801306BF5C
:1002F00081F480110134013D4EE77FEA645C18BF50
:100300007FEA655C29D094EA050F08BF90EA020FE6
:1003100005D054EA000C04BF1946104630BD91EADE
:10032000030F1EBF0021002030BD5FEA545C05D1E1
:100330004000494128BF41F0004130BD14F5800420
:100340003CBF01F5801130BD01F0004545F0FE4194
:1003500041F470014FF0000030BD7FEA645C1ABFC9
:10036000194610467FEA655C1CBF0B46024650EA00
:10037000013406BF52EA033591EA030F41F400212C
:1003800030BD00BF90F0000F04BF0021704730B5B2
:100390004FF4806404F132044FF000054FF0000187
:1003A00050E700BF90F0000F04BF0021704730B548
:1003B0004FF4806404F1320410F0004548BF40421D
:1003C0004FF000013EE700BF42004FEAE2014FEA72
:1003D00031014FEA02701FBF12F07F4393F07F4F4D
:1003E00081F06051704732F07F4208BF704793F050
:1003F0007F4F04BF41F40021704730B54FF4607463
:1004000001F0004521F000411CE700BF50EA010265
:1004100008BF704730B54FF000050AE050EA01020E
:1004200008BF704730B511F0004502D5404261EB7E
:1004300041014FF4806404F132045FEA915C3FF4BF
:10044000D8AE4FF003025FEADC0C18BF03325FEA5C
:10045000DC0C18BF033202EBDC02C2F1200300FA0D
:1004600003FC20FA02F001FA03FE40EA0E0021FA32
:1004700002F11444BDE600BF80F0004002E000BF7E
:1004800081F0004142001FBF5FEA410392EA030F7F
:100490007FEA226C7FEA236C6AD04FEA1262D2EBC9
:1004A0001363C1BFD218414048404140B8BF5B42CE
:1004B000192B88BF704710F0004F40F4000020F067
:1004C0007F4018BF404211F0004F41F4000121F07D
:1004D0007F4118BF494292EA030F3FD0A2F10102C7
:1004E00041FA03FC10EB0C00C3F1200301FA03F105
:1004F00000F0004302D5494260EB4000B0F5000F28
:1005000013D3B0F1807F06D340084FEA310102F1E6
:100510000102FE2A51D2B1F1004F40EBC25008BF98
:1005200020F0010040EA03007047490040EB000062
:10053000013A28BFB0F5000FEDD2B0FA80FCACF163
:10054000080CB2EB0C0200FA0CF0AABF00EBC25090
:1005500052421843BCBFD0401843704792F0000F7E
:1005600081F4000106BF80F400000132013BB5E7D1
:100570004FEA41037FEA226C18BF7FEA236C21D047
:1005800092EA030F04D092F0000F08BF08467047AC
:1005900090EA010F1CBF0020704712F07F4F04D17A
:1005A000400028BF40F00040704712F100723CBF8D
:1005B00000F50000704700F0004343F0FE4040F4B7
:1005C000000070477FEA226216BF08467FEA236375
:1005D0000146420206BF5FEA412390EA010F40F460
:1005E000800070474FF0000304E000BF10F00043AC
:1005F00048BF40425FEA000C08BF704743F0964393
:1006000001464FF000001CE050EA010208BF7047AD
:100610004FF000030AE000BF50EA010208BF704734
:1006200011F0004302D5404261EB41015FEA010C49
:1006300002BF84460146002043F0B64308BFA3F141
:100640008053A3F50003BCFA8CF2083AA3EBC25323
:1006500010DB01FA02FC634400FA02FCC2F1200242
:10066000BCF1004F20FA02F243EB020008BF20F079
:100670000100704702F1200201FA02FCC2F12002DF
:1006800050EA4C0021FA02F243EB020008BF20EAD4
:10069000DC7070474FF0FF0C1CEAD0521EBF1CEA02
:1006A000D15392EA0C0F93EA0C0F6FD01A4480EAF0
:1006B000010C400218BF5FEA41211ED04FF00063D9
:1006C00043EA501043EA5111A0FB01310CF0004005
:1006D000B1F5000F3EBF490041EAD3715B0040EA2B
:1006E000010062F17F02FD2A1DD8B3F1004F40EBFB
:1006F000C25008BF20F00100704790F0000F0CF0CE
:10070000004C08BF49024CEA502040EA51207F3A91
:10071000C2BFD2F1FF0340EAC250704740F400006C
:100720004FF00003013A5DDC12F1190FDCBF00F05D
:1007300000407047C2F10002410021FA02F1C2F10B
:10074000200200FA02FC5FEA310040F1000053EAA7
:100750004C0308BF20EADC70704792F0000F00F0F5
:10076000004C02BF400010F4000F013AF9D040EAFB
:100770000C0093F0000F01F0004C02BF490011F48F
:10078000000F013BF9D041EA0C018FE70CEAD1538D
:1007900092EA0C0F18BF93EA0C0F0AD030F0004C0D
:1007A00018BF31F0004CD8D180EA010000F00040C1
:1007B000704790F0000F17BF90F0004F084691F07F
:1007C000000F91F0004F14D092EA0C0F01D14202B9
:1007D0000FD193EA0C0F03D14B0218BF084608D182
:1007E00080EA010000F0004040F0FE4040F40000CC
:1007F000704740F0FE4040F4400070474FF0FF0C5F
:100800001CEAD0521EBF1CEAD15392EA0C0F93EAA5
:100810000C0F69D0A2EB030280EA010C49024FEAF7
:10082000402037D04FF0805343EA111143EA1013B0
:100830000CF000408B4238BF5B0042F17D024FF468
:10084000000C8B4224BF5B1A40EA0C00B3EB510F43
:1008500024BFA3EB510340EA5C00B3EB910F24BF2C
:10086000A3EB910340EA9C00B3EBD10F24BFA3EBB1
:10087000D10340EADC001B0118BF5FEA1C1CE0D179
:10088000FD2A3FF650AF8B4240EBC25008BF20F02C
:10089000010070470CF0004C4CEA50207F32C2BF80
:1008A000D2F1FF0340EAC250704740F400004FF01D
:1008B0000003013A37E792F0000F00F0004C02BF4E
:1008C000400010F4000F013AF9D040EA0C0093F018
:1008D000000F01F0004C02BF490011F4000F013B72
:1008E000F9D041EA0C0195E70CEAD15392EA0C0FDA
:1008F00008D142027FF47DAF93EA0C0F7FF470AF12
:10090000084676E793EA0C0F04D14B023FF44CAF54
:1009100008466EE730F0004C18BF31F0004CCAD1E9
:1009200030F000427FF45CAF31F000437FF43CAF25
:100930005FE700BF4FF0FF3C06E000BF4FF0010C47
:1009400002E000BF4FF0010C4DF804CD4FEA400229
:100950004FEA41037FEA226C18BF7FEA236C11D073
:1009600001B052EA530C18BF90EA010F58BFB2EB26
:10097000030088BFC81738BF6FEAE17018BF40F0A6
:10098000010070477FEA226C02D15FEA402C05D15A
:100990007FEA236CE4D15FEA412CE1D05DF8040BDF
:1009A000704700BF844608466146FFE70FB5FFF772
:1009B000C9FF002848BF10F1000F0FBD4DF808ED2A
:1009C000FFF7F4FF0CBF012000205DF808FB00BF1B
:1009D0004DF808EDFFF7EAFF34BF012000205DF875
:1009E00008FB00BF4DF808EDFFF7E0FF94BF0120C2
:1009F00000205DF808FB00BF4DF808EDFFF7D2FFBF
:100A000094BF012000205DF808FB00BF4DF808ED01
:100A1000FFF7C8FF34BF012000205DF808FB00BFCE
:100A20004FEA4002B2F1FE4F0FD34FF09E03B3EBFB
:100A300012620DD94FEA002343F0004310F0004F3B
:100A400023FA02F018BF404270474FF00000704791
:100A500012F1610F01D1420205D110F0004008BF30
:100A60006FF0004070474FF00000704753B94AB92B
:100A7000002908BF00281CBF4FF0FF314FF0FF30A6
:100A800000F00CB8ADF1080C6DE904CE00F010F8E0
:100A9000DDF804E0DDE9022304B07047704700BFD1
:100AA000034613F8012B002AFBD1181A01387047AE
:100AB0002DE9F04786468C460846089E1546744642
:100AC0001946002B40F0C2808542B2FA82F245D925
:100AD0004AB1C2F1200300FA02FC2EFA03F395405A
:100AE00043EA0C0C94404FEA154EA8B2BCFBFEF84A
:100AF000230C0EFB18CC08FB00F943EA0C43994584
:100B000028D9EB1808F1FF3704D2994502D9A8F18A
:100B100002072B44A3EB0903A4B2B3FBFEFC0EFBBC
:100B20001C330CFB00F044EA0344A04214D92C19F6
:100B30000CF1FF3304D2A04202D9ACF102032C44E1
:100B4000241A43EA07401EB1D44000233460736086
:100B5000BDE8F0874746DDE76346F1E792BB431BFC
:100B600001214FEA154EAFB2B3FBFEFC200C0EFB89
:100B70001C330CFB07F840EA0343984562D9EB1895
:100B80000CF1FF3004D2984502D9ACF102002B449D
:100B9000A3EB0803A4B2B3FBFEFC0EFB1C330CFB5F
:100BA00007F744EA0344A7424ED92C190CF1FF334E
:100BB00004D2A74202D9ACF102032C44E41B43EA5D
:100BC0000040C0E7C2F1200320FA03F195409040B5
:100BD0002EFA03F303434FEA154EAFB2B1FBFEFC0E
:100BE0000EFB1C10190C0CFB07F841EA004188456C
:100BF00004FA02F422D969180CF1FF3004D28845B6
:100C000002D9ACF102002944A1EB08019BB2B1FB6F
:100C1000FEFC0EFB1C110CFB07F743EA01439F424D
:100C20000ED9EB180CF1FF3104D29F4202D9ACF17E
:100C300002012B44DB1B41EA004192E76046E3E7F7
:100C40006146F7E76046A3E76346B7E7834206D904
:100C500016B9002108467BE7C6E900E0F9E7B3FAD8
:100C600083F78FB9834201D3724508D8BEEB0204E3
:100C700060EB030301209C461EB9002168E738465B
:100C8000FAE7C6E9004CF8E7C7F1200CBB4022FAAE
:100C90000CF41C432EFA0CF120FA0CF3B84001437B
:100CA0004FEA14490EFA07F5B3FBF9F81FFA84FE70
:100CB00009FB18300B0C08FB0EFA43EA00439A4577
:100CC00002FA07F240D9E31808F1FF3004D29A453E
:100CD00002D9A8F102002344A3EB0A0389B2B3FBB3
:100CE000F9F809FB183308FB0EFE41EA03418E4573
:100CF0002CD9611808F1FF3304D28E4502D9A8F12E
:100D00000203214443EA0040A0FB0298A1EB0E013C
:100D10004145CE46434602D306D14D4504D2B9EBF8
:100D2000020E68EB04030138002EA6D0B5EB0E02CC
:100D300061EB030101FA0CFC22FA07F34CEA03030E
:100D4000F940C6E9003198E74046C5E74346D9E790
:100D50002DE9F04F89B005902D4FBB68039300211A
:100D60005B6806AA38469847011E1ADBDDE9064B88
:100D7000284EDFF8A490A4FB0623049206FB0B3850
:100D8000049821A3D3E900234146FFF76FFE049B9B
:100D90004FF0FF3A9A4579EB0803054607D26FF00A
:100DA00085011E4809B0BDE8F04F08F0A2BB059BC5
:100DB000642B28BF642373436422B3FBF2F3A3FBC9
:100DC000046403FB0B4421460FA3D3E90023304600
:100DD000FFF74CFEB24579EB04040346DFD38542AE
:100DE00002D26FF01501DCE700220092039A002185
:100DF000146838462A46A04701460028D1D109B0D8
:100E0000BDE8F08FAFF3008000CA9A3B00000000FD
:100E1000A8AC0000002D3101FFC99A3B98B6000034
:100E200010B5094C204609F0EFFA28B921680748A7
:100E3000BDE8104008F05DBB0020FFF789FFBDE86A
:100E40001040034808F055BBA8AC0000ABB600004A
:100E5000CDB6000010B5FFF7E3FF0020FFF778FFE5
:100E6000064C4FF0FF324FF0FF33204605F0AEFF47
:100E700000F06EFAC0B2FFF76BFFF2E7E402002069
:100E8000014B1868704700BF780C002008B50D486A
:100E900009F0BAFA20B90C4A0C48032108F01BFFEC
:100EA00008480B4983681B689847031E04DA094AFF
:100EB0000648032108F018FF074B01225A600C2254
:100EC0001A8208BD88AC0000F5B60000C8AF00006B
:100ED000EEB200000EB70000A00000202DE9FF4197
:100EE000FFF7D4FF4FF4004200231A48194E1A4D61
:100EF0001A4FCDE9002306F087FD304606F0BEFD0F
:100F0000D5F808801649D8F80430134898470346A6
:100F1000C8B9144BB3F90040B8F8083003A96343CB
:100F2000039302F077FC08B9039C2413A4F5FA702C
:100F3000FFF75CFB3946FFF761FC0B4B18600B4871
:100F400005F010FFD9E70A4A0A48032108F0CCFE51
:100F5000D3E700BFB801002088AC000000002041AA
:100F6000A0000020D8150020780C0020C40200202A
:100F70002BB70000C8AF00002DE9F7434FF07E53B8
:100F8000184A1949194800F037F84FF40042002375
:100F90001748144FDFF85080CDE9002306F034FDE8
:100FA0004FF07E56124806F069FD00F0B1F9814617
:100FB00000F08EF9054600F0E1F93346044658B9D1
:100FC0000A483A46414600F017F8204600F0B0F9CA
:100FD000084805F0C7FEE5E74A462946034808F0F9
:100FE00095F8F3E7000002430000A0417C0C0020CC
:100FF000F0010020E402002083600023C36003614D
:101000004361024B01604260836170470000C84247
:1010100008B508F0DBF80A4A1368C31AC72B0DDDC0
:10102000106000F0ABF948B100F052F94FF07E517A
:10103000FFF728FABDE8084000F032B908BD00BF4C
:101040009C0C002008B508F0C1F80A4A1368C31ABE
:10105000C72B0DDD106000F091F948B100F038F9B0
:101060004FF07E51FFF70CFABDE8084000F018B9C8
:1010700008BD00BF980C0020014603488368DB6967
:101080000BB101221847704748AC000010B508F0BA
:101090009DF80A4A1368C31AC72B0EDD106000F0D2
:1010A0006DF980F00104E4B2204600F061F92146B8
:1010B0000348BDE8104008F0B0B810BDA00C0020F7
:1010C00014B3000008B5274809F09EF9002845D060
:1010D0004FF48031244808F0B4F8234808F084F82D
:1010E0004FF48031214808F0ACF8204808F07CF833
:1010F0004FF480311E4808F0A4F81D4808F074F839
:101100001C484FF4B01108F09CF81B484FF4B01184
:1011100008F097F819484FF4B01108F092F84FF41E
:10112000B011174808F08DF81648174B43604FF47C
:1011300000638360FFF7A0FF1448154B43604FF432
:1011400080538360FFF798FF1248134B43604FF0C2
:1011500000738360FFF790FF002008BD4FF0FF3061
:10116000FBE700BF48AC00002CB3000024B3000034
:101170001CB3000014B300000CB3000004B3000063
:10118000FCB20000BC0C00208D100000B00C002050
:1011900011100000A40C0020451000002DE9F047BC
:1011A000FFF790FF10B1314808F0A3F908F00EF8EE
:1011B000DFF8BC80DFF8BC902F4F054615F57A7438
:1011C00000F0DCF82546064648B901462B4808F0F1
:1011D00024F83146384608F020F8314617E000F090
:1011E00077F8064600F094F801463046FFF748F9D4
:1011F00041460646FFF70AFC8246F8B1012138460F
:1012000008F00BF800211D4808F007F800211C48E1
:1012100008F003F807F0DAFF241A002CCEDD4FF4B3
:10122000004640F2E73000214FF47A720023E4FBDD
:101230000601FFF71BFC09F036FABFE730464946C6
:10124000FFF7C6FB064648B15146384607F0E5FFB2
:1012500051460A4807F0E1FF0121D8E70146384628
:1012600007F0DBFF05480121B5E700BF52B70000DA
:101270000000A0400000A0C004B300000CB30000B8
:10128000FCB2000002460B46014805F0A3BC00BFBB
:1012900074020020014805F015BD00BF7402002053
:1012A00010B508490446FFF7B1FB38B90649204696
:1012B000FFF78EFB20B9054B1C6010BD014CFAE70F
:1012C000014CF8E7000070420000A041B40000208B
:1012D00010B54FF0FF304FF0FF31FFF7D3FF034B56
:1012E0001C68FFF7D7FF204610BD00BFB4000020E8
:1012F00010B54FF0FF3104464FF0FF30FFF7C2FF4B
:10130000024B1C60BDE81040FFF7C4BFCC0C0020AE
:1013100010B54FF0FF304FF0FF31FFF7B3FF034B35
:101320001C68FFF7B7FF204610BD00BFCC0C0020A3
:1013300010B54FF0FF3104464FF0FF30FFF7A2FF2A
:10134000024B1C60BDE81040FFF7A4BFC80C002092
:1013500010B54FF0FF304FF0FF31FFF793FF034B15
:101360001C68FFF797FF204610BD00BFC80C002087
:10137000014B1870704700BFE215002010B54FF008
:10138000FF304FF0FF31FFF77DFF034B1C78E4B2D5
:10139000FFF780FF204610BDE21500202DE9F04F39
:1013A00085B002AF364A3748032108F094FC364A2C
:1013B0003448032108F08FFC4FF4004200233348E7
:1013C000DFF8C890DFF8C8A0DFF8C8B0CDE9002387
:1013D00006F01AFB484606F051FBFFF7CFFF8046A8
:1013E000FFF776FF0546FFF793FF0446FFF7B0FFD0
:1013F0000646B8F1000F05D1274A2248032108F01C
:101400006AFCE7E721462846FFF73AF8514680464E
:10141000FFF7FCFA002831D159464046FFF7D8FAC9
:101420001E4B1F4A002808BF1346C7F804D08EB0D1
:101430003B600DF108081B49C8F814102846FEF758
:10144000C3FFC8E906012046FEF7BEFF3B68C8F8A7
:101450002C30424640F20373A8F83030124BC8F8E3
:101460002860C8E9080142F8103F0648002344F20A
:10147000C04100F0D1FFD7F804D0ABE70B4BD4E765
:1014800087B70000D8AF00009BB7000028020020FB
:101490000000A0400000A0C0C2B7000074B7000068
:1014A0007EB70000DAB70000080000016AB700004C
:1014B0002DE9F041104F114E4FF07C584FF0FF33A3
:1014C0004FF0FF32384605F081FCFFF7D9FC337846
:1014D0000B4D044633B10023286033702046FFF7DC
:1014E00007FFEBE72968FEF7CDFF4146FFF7D2F88B
:1014F0002C600446F2E700BFC40200206C0100200B
:10150000D00C00202DE9F04F91B08407009302F039
:1015100004030293C2F3C20303F10103DDF8688000
:10152000039205460E46059340F0BA81041D30B182
:10153000072909D86FF01B0011B0BDE8F08F01F04A
:1015400007063444C6F10806009B4FF00009591EF7
:101550004FF0040A4FF0FF330193CDF810904F463F
:10156000CB4653460DB1009A22600598002800F33F
:10157000E8809848009A824203D397488242C0F09C
:10158000E080039AA4EB050E92074FEA9E0000F15B
:1015900003810F2F00F2B180002D00F0058107F1CB
:1015A00040020DEB020C019A0CF8200C0CF8102CE8
:1015B000049801300490E7E07A285DD84B280ED8D3
:1015C000472859D829282DD8252852D054D8202842
:1015D0007AD02338D0F1000B4BEB000B74E04C3881
:1015E0002E2849D8DFE800F0704848484848484865
:1015F000484848484B484848484848484859484B54
:101600004B595959704B6D487048184B18484882CF
:101610007F4B48484B487F0000204FF0000B4FF0B5
:10162000040A38E02A38C0B2012202FA00F010EAB7
:101630000E0F49D110F0625C2FD110EA020B43D09B
:101640006046013C5444B4FBFAF40AFB04F4002D58
:1016500061D0A3EB050CA444B4453FF66BAF002862
:1016600068D1042B47D158F8043B23600434042389
:101670002AE0019A013A01924FF0000B24E011F8A0
:10168000010C6C2834D111F8023C00206C2B8346ED
:10169000C5D14FF0080A5346D3E708F1070828F0F0
:1016A00007080734F8E802AB24F0070435B10698C0
:1016B0002044B0423FF63EAFC4E900AB08344FF0DF
:1016C000000B4FF0080A534611F8010F002878D09C
:1016D000BBF1000F7FF470AF2528F5D1019B0133DA
:1016E00001934FF0010B4FF0040AECE7584694E7E2
:1016F00000208346A5E7082B02D06FF015001BE7FA
:1017000008F1070828F00708F8E80223C4E90023D5
:1017100008340823D8E768B9042B02D108F104087B
:10172000A4E7082BE9D108F1070828F0070808F119
:101730000808EDE7059A013A059258F8042B009243
:1017400010E7039A900720D5A4EB050E4FEA9E0000
:101750004FF0010CBEF5007FCFD20F2FCDD8F5B1E1
:1017600007F140020DEB020EC0B2019A0EF8200CF8
:101770000EF8102CBCF1000F3FF41AAF60F07F00A0
:101780000EF8200C09F101090137C5F108020434F3
:1017900006924FF6DA7E97E74FF0000CDAE7BCF1DD
:1017A000000F01D00136EFE7029802360028EBD196
:1017B0000098CDE90631FFF773F9DDE906310644FB
:1017C000E2E7631BB3F5806F97D23DB9A6F1080439
:1017D000E018B1E698AB000058C30000029A2860F8
:1017E0009B082B709DF81030C2B1EB7085F8029009
:1017F000B9F1000F05D008A80022C5F1010C9742ED
:101800000ED1C5F101030DF120084FF0000A01933C
:101810000DF1300B574512D1601B8DE66B70E5E77B
:1018200010F8013B190608D50CEB040EB64503F081
:101830007F033FF67FAE04F8013B0132DFE7B9F1E9
:10184000000F03D098F90020002A17DB029BD3B1C8
:101850001AF80B2004F8012B0022019B18191044E0
:10186000B0423FF667AE98F8000004F8010B00990B
:101870000392204608F0ABFF039A14440AF1010AD0
:1018800008F10108C6E798F8002055F822300093C7
:10189000029B45F822300098FFF702F9421CDCE772
:1018A0006FF00D0048E600BF2DE9F04F97B000AF94
:1018B00090F802A0D7F880B03B62CBF3C003044697
:1018C000FA62BB61894641B9457800780AEB80002D
:1018D00020444D4517D8A0EB0409E378FB61BAF129
:1018E000000F02D01BF0010F16D1FB6953BBFB6A3E
:1018F0001BB13A6A4946204698474D4628465C3710
:10190000BD46BDE8F08F461C3046FFF7C9F80130F0
:10191000304409F10109DCE7237862687A62FA6AE7
:101920009900796104EB8301002A40F000814D4663
:101930000E4601EB0A094FF000084E454CD101EB71
:101940000A0610E01BF0020FD1D023789A007A61CA
:1019500062687A62FA6A04EB8301002A77D14D4605
:1019600001EB0A0690461BF0050F0CBF0223012372
:10197000FB62FB6906EB430A0BF00203BB625645B0
:10198000BCD016F8021B16F8013C54F82390994B72
:10199000994502D3984B994536D3BB69002B40D06B
:1019A000786A07F07FFD00283BD0E9468AB06A4696
:1019B000924B53617B6AC2E906314FF40073138482
:1019C0008F4B42F8103F8F4800234FF4125100F024
:1019D00023FD023DCD46D2E716F8013BF96254F8EB
:1019E0002300FFF75DF8D7F88430F96A01304BB176
:1019F000D7F8883098453EBFD7F8843023F81800D0
:101A000008F10108054498E7BB6923B1786A07F03B
:101A100049FD0028C9D11BF0010F05D1FB6AED1A61
:101A2000ADE7BB6A002BAAD04846FFF739F8D7F8D4
:101A3000843053B1D7F8883098453FBFD7F8842019
:101A4000431C22F8183008F10108054497E7BAF161
:101A5000000F72D01BF0040672D0D046002607F1AA
:101A6000480052463B61B96208F0B1FEB96A3B6971
:101A700001EB0A02BA62FA69F9695200FA60BA6ABD
:101A800002EB41023A610BF00202BA603A69B96AAC
:101A90008A4257D162787A621BF0020F32440CBF3F
:101AA0004FEA580100211BF0010FD2B240F09F8095
:101AB0001BF0040F14BF40460020BB616270A07091
:101AC000E1703A6A7969FB6A20469847051EFFF67D
:101AD00015AFBB6923707B6A6370FB69E370414695
:101AE0003A6AFB6A84F802A007F148009847B0F10F
:101AF0000008C0F2BB807B693A6AA9EB0A01C91AE7
:101B0000FB68C91AD7E90A0398470028C0F2B080D9
:101B1000A84408EB00054FF0000B07F1380AB34565
:101B200072D300213A6AFB6A08469847E6E65646B1
:101B30004FF0000807F1380093E75646D04697E784
:101B4000B04695E7BA6A12F8021BBA6212F8015C55
:101B5000284A54F82500904202D3274A90421ED3C7
:101B6000BA6932B1786A7B6007F09CFC7B68002818
:101B70008CD1BA6802BB08F1280207F1300C08F1D9
:101B80000100944407F1580252FA80F008F102086B
:101B90000CF8101C5FFA88F800F8105C76E7BA6958
:101BA0003AB1786A7B6007F07DFC7B6800287FF49F
:101BB0006DAF1BF0010F09D006F1280207F13000CC
:101BC000711C161806F8205CCEB25FE71BF0040FFC
:101BD0003FF45CAF08F1280207F1300008F1010181
:101BE00002EB000808F8105C5FFA81F84EE700206D
:101BF00063E700BF98AB000058C300001CB80000AA
:101C000004000001F0AF00001BF80A3087F83730FD
:101C100054F82390D7F884302BB3D7F888309B45FD
:101C200021D2D7F8843033F81B803A6AFB6A01214D
:101C300007F13700984700281ADB0544B8F1000F78
:101C400006D14846FEF72CFF00F101081FFA88F87C
:101C50003A6AFB6A414648469847002808DB054433
:101C60000BF1010B5BE74FF00008DEE7454645E668
:101C7000054643E6014B1860704700BFB8000020DE
:101C800080B505460E461746984605F0D1FB03463B
:101C900008F078FFDFF81890044649F80030424613
:101CA00030463946A84754F8090001F0AFFA00BFA2
:101CB000080000002DE9F047058B044628079046F0
:101CC00011D4022905F0070540F0CC80204607F02A
:101CD00087FE78B10138218B042811D8DFE800F0A5
:101CE000C2106D85950001290CBF45F0100545F027
:101CF0002005258388F31188BFF36F8FBDE8F08737
:101D000001F0070AAA4500F0A5800027B9463E4623
:101D1000A368002B00F0BC8041F00801218388F308
:101D20001188BFF36F8FA168002900F0BA800D6899
:101D3000002900F0B680D1F8048033465246204690
:101D4000C047002D76D02B6829461D46F0E701F0EC
:101D500007035A1F012A1BD8002221F00701062B76
:101D6000276889B2C4E9002209D13B4603E0628BAF
:101D7000013262831B68002BF9D141F002012183FB
:101D8000204607F02DFE00287AD041F0200176E0B1
:101D9000042B0AD121F0070189B22183204607F0E4
:101DA0001FFE10B141F020012183218B01F0070AB1
:101DB000AA454FD00027B946AAE7236921F00701B9
:101DC00041F00601062DD3F8009021832DD1B9F101
:101DD000000F3FD041F00801218388F31188BFF341
:101DE0006F8F3A492046C84729E021F0070123694F
:101DF00041F0040189B2042DD3F804902183E6D088
:101E000000273E464FF0040A82E721F007012369CC
:101E100041F0050189B2052DD3F808902183D6D071
:101E200000273E464FF0050A72E700273E464FF076
:101E3000060A6DE72B4687E7B9F1000FD1D1EFF322
:101E40001188202383F31288BFF36F8F238B23F035
:101E500008032383258BEA062ED525F01003238360
:101E600005F007056669218B002EBFF670AF0023D1
:101E70002768C4E9003321F0070141F00101218303
:101E8000218B01F0070AAA454FF000097FF440AF0B
:101E9000002F9CD041F00801218388F31188BFF303
:101EA0006F8F002FC8D03D683946334652462046D2
:101EB00007F0C2FD2F46F4E7AB067FF51BAF25F018
:101EC0002003238305F0070500E700BF659A0000A3
:101ED0002DE9F047DFF85880044607464FF0010926
:101EE00014B93846BDE8F08794FAA4F5B5FA85F53B
:101EF00009FA05F32E0108EB05156FEA030A24EA37
:101F000003042B7B002BEBD058F806301B694BB930
:101F10004644042273682846196807EA0A0707F04E
:101F20006BFEDDE7284698470028D9D1F0E700BFCF
:101F300040B0000030B51049104889B0002208F0C8
:101F40001EFC0F4D0F4900220023CDE9062300247B
:101F50000E23CDE90334CDE901440B4B00944FF43B
:101F60004072284604F0A4FF0849284608F005FB03
:101F7000204609B030BD00BF911F0000800A00203C
:101F8000F805002080330020BD220000D0B80000FA
:101F9000014804F0E7BE00BFD40200202DE9F0475D
:101FA000804621480F4607F007FE0646002833D03A
:101FB00000252846BDE8F087237B83B12368DB68D2
:101FC0000BB120469847636883F8069023681B6925
:101FD000D3B9636804221968204607F00DFE013664
:101FE00010345445E8D3B8F1000FE2D0002DDFD013
:101FF0002846FFF76DFF0546002FF7D000214FF46C
:10200000A47008F050FBF1E7204698470028E0D084
:1020100009FA06F31D43E2E7044CDFF814A0054675
:102020004FF00109DDE700BFE40C002040B00000E4
:1020300050B00000014B53F82000704748B3000037
:1020400008B5034608462BB1044A136000F07AFC39
:10205000002008BD6FF01500FBE700BFBC000020AA
:1020600010B5044C237813B9034804F07BFE012318
:10207000237010BDE3150020D402002010B50446E3
:102080000B4807F099FD5CB1BFF35B8F094B53E838
:10209000001F013943E80012002AF8D1BFF35B8F1B
:1020A000054808F078FB0548BDE8104004F05ABE2A
:1020B000DC0C0020E00C0020800A0020D40200206C
:1020C0000020064BBFF35B8F014653E8000F43E847
:1020D0000012002AF9D1BFF35B8F7047DC0C00209F
:1020E00070B5FFF7EDFF084C084E0546B44200D32B
:1020F00070BD63685B792BB123685B6813B12946B7
:10210000204698471034F1E740B0000050B000007E
:1021100010B5044C0449204607F0FBFA034B1C6041
:1021200010BD00BF7C01002034B30000D40C00209F
:102130000D4A0E48002310B513700D4A13600D4A66
:102140004FF400411360FFF77BFFFFF7E1FF0A4BFD
:102150000A4918468B4200D310BD1A1A5C68121146
:10216000013222711033F5E7E4150020B59B000021
:10217000DC0C0020E00C002040B0000050B000005B
:10218000014600220148002307F0E4BA7C01002048
:10219000014807F07DBB00BF7C010020024B0146D7
:1021A000186807F0C9BB00BFD40C0020014807F035
:1021B000FEBB00BF7C01002070B5294B18780028B9
:1021C0004DD0FFF7E5FF0546002845D1254B264CAD
:1021D0001B68002B19DD08F0D0FA4FF47A72A0FBCF
:1021E000020302FB0131C30BD4E9002043EA41435F
:1021F0009B1A4FEAD13140F2E93261EB0001934280
:1022000071F1000101D3FFF76BFFD4E9003213F540
:102210007A7342F10002C4E90032BDE87040FFF772
:10222000C5BF63685B7923B1236829461B682046D4
:1022300098471034B442F4D32846FFF7AFFFBFF3FA
:102240005B8F0A4B53E8001F013943E80012002A54
:10225000F8D1BFF35B8FB9E7054C064EEAE770BDD6
:10226000E3150020DC0C0020780A0020E00C0020A0
:1022700040B0000050B0000070B50D4D297861B934
:102280000120FFF78BFE0B4C0B4EB44206D3FFF739
:1022900093FF0028FBD101232B7070BD63685B792D
:1022A0001BB1236820469B6898471034EDE700BFB8
:1022B000E415002040B0000050B0000000212DE9DE
:1022C000F0470846FFF76AFE044658B340F26768D5
:1022D0004FF0000908F056FC1B4B1C4A1B581360BA
:1022E00033B11B4B1B68092B02DD1A4804F03AFD81
:1022F000194FDFF860A0002544B12046FFF7E8FD44
:10230000044618B94FF0FF384FF0FF39FFF754FF7C
:10231000064628B9B5B942464B46504604F056FD2C
:102320003546E9E74FF0FF384FF0FF39D2E72B6829
:102330009B691BB100221146284698471035BD42C3
:10234000F5D3E8E7054DFAE708000000D80C0020B7
:10235000E00C0020D402002050B0000040B000008B
:1023600013B5184807F028FC174B1B7873B1EFF32F
:102370001184202383F31288BFF36F8FFFF71CFFB4
:1023800084F31188BFF36F8F02B010BD0F4B1B6831
:10239000002BF9D050B900220023CDE900230C48CE
:1023A0004FF40042002305F02FFBEDE70928EBD1A5
:1023B000074808F0F0F9074802B0BDE8104004F003
:1023C000D1BC00BFE00C0020E4150020D80C002098
:1023D000800A0020D402002010B5064B1B6804467A
:1023E00098472146A060044807F033FABDE8104042
:1023F000FFF7B6BFBC0000207C010020044A054B5B
:102400009B1AB1EBD30F34BF52F831000020704754
:10241000C8AF000040B000002DE9F04F8FB004AF0E
:10242000C1F34A28B8600D4691467B600C0DB8F1A7
:10243000000F63D0002607F114034FF0040B4FF098
:102440000A0AC7F80C80C7E907667E620193CDF8D7
:1024500008B0CDF800A007F11C03F96832464846E1
:10246000FFF722FAB0F5006F03461CD36C468AB022
:10247000D9F8041004AB2648C3E9050140F2FF7106
:10248000D9611A464FF400711984224B42F8103F6B
:10249000214833464FF41251FFF7BEFFA5462C37B3
:1024A000BD46BDE8F08FC0F30A0804F117001844D8
:1024B00020F0070080083B60FFF762FE68F35325B9
:1024C000044690B13B68154AC7E9083600F110018F
:1024D00007F11403F961CDE900A3CDF808B0F9685C
:1024E00007F11C034846FFF7DFF968F353257B68C3
:1024F000B9682A46204607F09EFBD0E704F1170092
:1025000020F007008008FFF73BFE0446EDE700BF20
:10251000E5B800000400000100B000000B9C0000C2
:102520002DE9F04F87B0DDE91279DDE9105A044654
:10253000039193469846BFB1CDF800903B46524672
:1025400010210020CDF81490FEF7DCFFB0F5006FED
:1025500006460AD3184A194840F2FF73022107B011
:10256000BDE8F04F07F0C0BB3E4605F11700304410
:1025700020F0070004F007048008FFF701FE0BF0CD
:10258000070BE40044EA8B1444EA462444EA055469
:10259000054640B13FB1CDF800903B46524631462A
:1025A0001030FEF7AFFF039943462246284607B096
:1025B000BDE8F04F07F03FBB24B9000000B00000B9
:1025C000406820B1034BC01A40F3CF0070474FF072
:1025D000FF307047C8AF00000EB403B503AB01462F
:1025E00053F8042B0448019301F0A6F802B05DF8FB
:1025F00004EB03B0704700BF4B9D0000CA0605D432
:102600008B064CBF02490349FFF7E6BF704700BF86
:102610005DB900005CB900002DE9F04F89B09B4620
:10262000149B06939DF84CA0159B0593169B179E33
:10263000049304460D469046BAF1000F00F09D80C9
:1026400006F48073079307F0D5FA06F002090246F4
:1026500000283ED091492046FFF7BEFF0746B9F15A
:10266000000F08D016F0440F35D18D492A46204678
:10267000FFF7B2FF074406F0010353B1894B8A49C3
:1026800053F82A20894B2046002A08BF1A46FFF734
:10269000A3FF06F48073002B49D006F00803002B3B
:1026A00063D1B8F1000F66D0814942462046FFF75A
:1026B00093FF0546069B3D44002B6DD1049B002BE8
:1026C00073D1F30700F1E48031462046FFF796FF0F
:1026D000D8E00746C3E7774B18680028CAD0764B86
:1026E0004FF47A791B68B5FBF3F54FF46163B5FBE2
:1026F000F0F100FB115509FB05F54FF03C0CB1FB67
:10270000F3F203FB1211B5FBF0FEB1FBFCF300FB8F
:102710001E550CFB131109FB05F50091B5FBF0F5F7
:102720006649CDE901E52046FFF756FFA2E706F02E
:102730000803EBB1624B634953F82A202046FFF7A8
:102740004BFF0546B8F1000F05D0594942462046D7
:10275000FFF742FF0544BBF1000FABD05A495A4680
:102760002046FFF739FF0544A4E74FF0000BE1E7EF
:1027700006F00805E6E745469CE7BBF1010F069B1E
:1027800006D1002B64D1049B002B7BD000250CE0EC
:10279000002BF8D04D485CE04D48069B4D49224641
:1027A00006F04FFE049B002B68D0DFF82C81DFF889
:1027B0002C91049F3146102F204628BF1027FFF789
:1027C0001DFF4FF0000B5D4545DC059B49461A781F
:1027D0002046FFF701FF4FF0010B1BF0070F03D15D
:1027E00041462046FFF7F8FE5F453BD9059B494629
:1027F00013F80B202046FFF7EFFE0BF1010BBBF1A6
:10280000100FEAD1364920464FF0000BFFF7E4FEE7
:102810005A46059B9A5CA2F120015F2928BF2E220F
:1028200030492046FFF7D8FE0BF1010BBBF1100F2A
:102830001DD01BF0070F03D141462046FFF7CCFE09
:102840005F455A46E5D841462046FFF7C5FEEBE70F
:102850001F485546A1E741462046FFF7BDFE0BF154
:10286000010BB0E720492046FFF7B6FEC5E7059B00
:102870003B440593049BDB1B04939AD1BAF1000FF0
:102880007FF41FAF204609B0BDE8F04F07F050BA03
:10289000064A05492046FFF79FFE15E764B9000088
:1028A00068B9000058B300007ABF00005FB90000AB
:1028B0008DB90000EC0C0020E80C002071B900007C
:1028C0006CB3000091B9000097B90000819D000031
:1028D0004B9D000039370000A4B900009CB90000EE
:1028E000A6B90000A8B90000A2B9000073B542F271
:1028F0000F738B4228BF0B4605680F4A044605211B
:10290000684605F0D5FA63680C495B6806460B22F9
:10291000284607F0FFF963683246694628465B6837
:1029200007F0F8F9636806495B681B22284607F040
:10293000F1F902B070BD00BFACBF0000C7B9000024
:10294000ABB90000074A00210123904206D8064A8D
:1029500001B901231360054B1860704740085B0004
:102960000121F2E740420F00E80C0020EC0C0020AF
:10297000F8B5074F0D4604464618B44201D1284623
:10298000F8BD14F8011BBB6801485B689847F4E781
:1029900068AC0000014B036000207047B4B3000036
:1029A00008B5044806F0A5FDBDE80840024806F059
:1029B000A0BD00BF0DBA000042BA0000014805F0FA
:1029C000CFB800BFB4B3000038B5044618B90F4BF8
:1029D0000F485B6898476168B1F5683F10D0B1F562
:1029E000680F0DD00B4DA9420AD011F46861206820
:1029F00007D00146084807F05DFD002323606560AD
:102A000038BD142207F0F1FEF9E700BF0C010020E9
:102A100070BA00002C5F5CA91412002008B520B326
:102A20004368B3F5683F10D101220368BFF35B8FA1
:102A300053E8001F002903D143E800200028F7D104
:102A4000BFF35B8F0DD1002008BD094A93420AD025
:102A500000684FF0FF324FF0FF3304F0BBF800285E
:102A6000F1D00448F0E70448EEE76FF4E040EBE70C
:102A70002C5F5CA9E98FFFFFEA8FFFFF08B5D8B193
:102A80004368B3F5683F10D100220368BFF35B8F42
:102A900053E8001F012903D143E800200028F7D1A3
:102AA000BFF35B8F0BD1002008BD074A934208D0CB
:102AB000006804F007F9F6E76FF4E040F4E7034834
:102AC000F2E70348F0E700BF2C5F5CA9E98FFFFF46
:102AD000EA8FFFFF10B5044618B91D4B1D485B680F
:102AE00098476368B3F5683F2FD0B3F5680F2CD0D3
:102AF000194A934219D1236803BB18484FF0FF329B
:102B00004FF0FF33214604F037F808B923681BB9AA
:102B10000F4B13485B68984720681422002107F088
:102B200064FE4FF46863636008E0B3F5683F0DD856
:102B30003A2B03D040F6BA629342DED1206807F008
:102B400003FD636843F03A03636010BD054AF3E791
:102B50000C01002070BA00002C5F5CA91412002048
:102B600096BA00003A00003A08B5064906484023E4
:102B7000142207F091FCBDE808400449044805F020
:102B800061B800BF140D002014120020BCB3000077
:102B9000D0B300002DE9F047064600AF0C460029EF
:102BA00036D0E9468AB0D1E90012A3686D462148C3
:102BB000A8464FF0050AC5E90501C5E9072348F80D
:102BC00010AF1D48424600234FF42151FFF724FC6B
:102BD000CD46D4E903126369AD461848C5F810A084
:102BE000C5E90501C5E907231348002342464FF410
:102BF0002151FFF711FCCD46E369114A0E4801212E
:102C000007F072F8A3690F4A0B48012107F06CF82E
:102C1000012E07D1EFF305830B4A0748103B3146DD
:102C200007F062F82146304603F0FAFDBD46BDE8E4
:102C3000F08700BFC3BA000020B00000F2BA000065
:102C400021BB000030BB00005EBB000030BFFFF7BF
:102C5000FDBF00BF2DE9F0410B4EDFF8308006EBE1
:102C60000807CC1B054632460949204607F0AFFD50
:102C7000A01942460021083C07F0B7FD2C6707F178
:102C80000800BDE8F08100BF000000000400000063
:102C900050B00000054B5A699B689A421FBF044A16
:102CA000536843F080535360704700BFD413002033
:102CB00000ED00E070B5294C06460D46284829492C
:102CC00007F0E6F8A36AD9043CD52548264907F061
:102CD000DFF81720A36A1A0504D52148234907F015
:102CE000D7F818201D4CA36A9B0512D51C48204913
:102CF00007F0CEF8A36BA26A100409D51D4A184844
:102D0000012106F0F1FF1EB1A36A23F40043A36280
:102D10001920124CA36A590504D51148164907F029
:102D2000B7F81A20A36ADA050ED50D48134907F043
:102D3000AFF81B20094A936A43F47F439362002350
:102D40002B7070BD1620C5E7A36A9B04F2D504481A
:102D50000B4907F09DF81C20ECE700BF00ED00E0F8
:102D600020B0000071BB000087BB000098BB0000D2
:102D7000ABBB0000C4BB0000D9BB0000F4BB00002B
:102D80000CBC000010B5204C2049214807F080F809
:102D9000A36A990136D51E481E4907F079F81E200E
:102DA000A36ADA0104D51A481B4907F071F81F20FD
:102DB000154CA36A1B0304D51548184907F068F899
:102DC0002120A36A590304D51148154907F060F87A
:102DD00022200D4CA36A9A0304D50D48114907F02F
:102DE00057F82320A36ADB0304D509480E4907F0EE
:102DF0004FF82420044A936A6FEA03436FEA1343AF
:102E0000936210BD1D20CBE700ED00E03BBC00004D
:102E100020B0000053BC000066BC000080BC000075
:102E20009EBC0000C3BC0000DDBC00002DE9F843DF
:102E3000364D8046894636483649174607F028F809
:102E4000AB6ADE0627D53449314807F021F8112452
:102E5000AB6A1D0704D531492D4807F019F8122433
:102E60002A4DAB6A980718D52D49294807F010F864
:102E70006E6BAB6A190646D52A4A254833460121AE
:102E800006F032FFB9F1000F03D0AB6A23F08003E4
:102E9000AB62132403E01024DAE76FF015061B4D34
:102EA000AB6ADA0704D52049194806F0F1FF14246B
:102EB000AB6A9B0604D51D49154806F0E9FF1524A9
:102EC000124B9A6AD50602D49A6A90070AD55B68B3
:102ED000190507D54146304600F062FA10B180F37B
:102EE00009880224094B9A6A920642BF5A6A22F460
:102EF00000525A629A6A42F0FF029A6200233B70C3
:102F00002046BDE8F8836FF01506C2E700ED00E04B
:102F100020B0000008BD00001EBD000098BB0000EE
:102F200051BD000069BD00007FBD00000CBC000069
:102F30002DE9F041664B8AB0D3F8048000AF044617
:102F4000C8F30805002686F31188BFF36F8F02F0DF
:102F50007F43B3F17F4F07D102F00C03082B12D14E
:102F60005C495D4806F094FF002634460023FB715F
:102F7000EB1E092B00F28A80DFE803F00A80837CD5
:102F800088888888888610074CBF0C460126EDE7A4
:102F9000524951484E4D06F07BFF0023FB71EB6A0E
:102FA0009A0705D54E494C4806F072FF002332E0DF
:102FB000EB6A002B01DA4B49F5E7EB6A5B00F5D5CC
:102FC0004949454806F064FF6B69A26943F4807380
:102FD0006B61BFF34F8FBFF36F8F6B6932F8022CB9
:102FE00023F480736B61BFF34F8FBFF36F8F4DF688
:102FF00002739A4208D0AB6ADBB273B3FA1D0121A7
:103000002046FFF713FF37E02368384A3248012192
:1030100006F06AFE2368FA79DAB907F1080504F1C7
:10302000200C206861682A4603C2083464451546AE
:10303000F7D17A6A002E45D0C2F3080121B96FEAB0
:1030400052226FEA42227A6207F108011846FFF71E
:10305000A1FD2837BD46BDE8F081AB6A13F47F4F70
:1030600004D0F91D0120FFF725FE05E0AB6AB3F59A
:10307000803F9BD3FFF786FE0346CCE7FA1D002175
:10308000BEE7F91D0020EEE719498CE7194A1A4BF3
:1030900018F4F87FE8468AB018BF13466A46174905
:1030A000C2E905134FF400731384103D144BD5612E
:1030B00042F8103F084800234FF41151FFF7ACF9D4
:1030C000C54673E722F4FF7222F00102BBE700BF9E
:1030D00000ED00E0CCBD000020B00000F7BD000016
:1030E0000EBE00002FBE00003DBE00005CBE000012
:1030F00078BE0000B3BD00009EBD00009CBE000075
:1031000004000001044B5A6942F010025A615A69E6
:1031100022F008025A61704700ED00E0EFF30880EA
:10312000EFF3098101B57246FFF702FF01BD00BF51
:10313000002080F31488BFF36F8F0F4880F3088856
:1031400001F040FF00200D490860BFF34F8F00F0F1
:103150002BF8202080F3118809484FF404614018AF
:1031600080F30988EFF314800221084380F3148868
:10317000BFF36F8F00F0E4F88044002094ED00E08E
:10318000C03600200749D1F890200023C2F307225F
:103190001846934200DB7047C1F89830C1F8A00090
:1031A0000133F6E700ED00E008B572B6002383F3C3
:1031B0001388FFF7E7FF144B4FF0FF32C3F880206E
:1031C000C3F88420C3F88820C3F88C20C3F890206B
:1031D000C3F89420C3F89820C3F89C20C3F880213A
:1031E000C3F88421C3F88821C3F88C21C3F8902147
:1031F000C3F89421C3F89821C3F89C2162B6BFF3A9
:103200004F8FBFF36F8F08BD00E100E0084B9B6854
:1032100083420BD1EFF3058343B1064B5A6842F06A
:1032200080525A605A6A22F400425A6204F006B987
:10323000D413002000ED00E014498A684FF03000FC
:103240001044EFF3098C80E8F01F202080F31288EF
:10325000BFF36F8F0E4F4FF000664A698A603E6081
:10326000106F0C4C2060506F0023536780F311885F
:1032700004B5104600F0F8F8BDE8044002F1300053
:1032800090E8F01F8CF3098870470000D4130020E9
:1032900004ED00E0301200201EF0040F0CBFEFF32D
:1032A0000880EFF30980816911F8021C0229FFD020
:1032B00001B5724606F0E1FD01BD00BF40B2002835
:1032C00007DB044A4109012300F01F00834042F854
:1032D0002130704700E100E0054B420900F01F007B
:1032E00053F82220012303FA00F01040704700BF7A
:1032F00000E100E040B20028A8BF00F1604001F109
:103300000101B8BF064B4FEA4111ACBF00F5614067
:1033100000F00F00C9B2B4BF195480F80013704711
:1033200014ED00E0044B054A23F07F039360BFF3E4
:103330004F8FBFF36F8F70470000000000ED00E07B
:1033400008B5FFF7EFFF074AD2F8883023F470037F
:10335000C2F8883003F050FB04F092F900F05AF8FC
:1033600003F08EFB00ED00E042F8203C009B42F8A9
:103370001C3C0A49019B42F8183C029B42F8143C51
:1033800021F001014FF0807342F8043C42F8081C20
:103390000023203A02654367704700BF811C00008C
:1033A000094A0346906870B113F1160F006E05D0FC
:1033B000A0F140029A4205D8834203D2814228BF3D
:1033C0000020704700207047D413002008B5154630
:1033D000094A0A4B9060026F1A600E4600F044F8EA
:1033E0002C4686F309880020054B9847204600218B
:1033F00000220023034C2047D41300203012002069
:10340000A19E0000811C0000014B10221A61704730
:1034100000ED00E0044800232021C2180133302BC6
:1034200082F80013F9D1704700E100E008B5EFF32E
:103430000583064A103B02EBC30152F8330049688A
:103440008847BDE80840FFF725BC00BFC8AC0000B6
:10345000024B034A0348012100F08AB8000004200F
:1034600000000020E0B30000026E054B403A1A60F5
:10347000044A4021C3E901121846012100F082B834
:103480003412002000000B1508B503461048D0F890
:103490009020C2F30722013A934207D90D480E4A01
:1034A000012106F021FC6FF0150008BDC0F898302E
:1034B0000A6822F01F021A4342F01002C0F89C2052
:1034C0008A6842F00102C0F8A0201846EDE700BF6C
:1034D00000ED00E018B00000B3BE0000F0B50E46ED
:1034E00085B01F4604460025B5420DDA606810B36A
:1034F00097B1431E18420AD0104A11482B460121A9
:1035000006F0F2FB6FF01502104605B0F0BD1F2863
:10351000F2D921680B42EFD12368019306F0E3FC56
:10352000A36801A90343D0B20393FFF7ADFF10F1E5
:10353000160FE7D0421C01350C34D5E7D9BE000088
:1035400018B00000044B0522C3F89420BFF34F8F3E
:10355000BFF36F8F704700BF00ED00E0BFF35F8FD8
:10356000024B0022C3F89420704700BF00ED00E03A
:1035700010B5034C01232278FFF7B0FF207010BD77
:10358000E615002008B50B4A00231278FFF7A6FFC6
:1035900010F1160F07D0084A0021D2F89030C3F37B
:1035A0000723984200DB08BDC2F89800C2F8A010BB
:1035B0000130F2E7E615002000ED00E02DE9F043D0
:1035C00057485849D0F890300D68C3F307239D42FF
:1035D00085B000F2A180FFF7C1FF49680022954243
:1035E00001F10C011AD1504C504F25706846FFF77D
:1035F000D1F9DFF83C81DFF83C9106460025AE4268
:103600001FD1237846490020D1F89020C2F3072229
:1036100093427BDBFFF796FF00204CE0C0F8982038
:1036200051F80C3C23F01F03134343F01003C0F880
:103630009C3051F8043C43F00103C0F8A030013243
:10364000CDE7009800EB05114FEA051CCB683B4025
:10365000B3F5000F44D00AD8B3F5001F2ED0B3F550
:10366000800F34D0B3F5801F10D00135C7E7B3F118
:10367000807F3ED0B3F1007FF7D150F80C308868DE
:103680004A6806F030FC40F4802009E050F80C3025
:1036900088684A6806F027FC40F0885040F43020E3
:1036A000039001A92078CDE90123FFF7EDFE002862
:1036B00028DA6FF0150005B0BDE8F08350F80C3043
:1036C00088684A6806F00FFC40EA0800E8E750F80E
:1036D0000C3088684A6806F006FC40EA0900DFE71B
:1036E00050F80C3088684A6806F0FDFB40F08270A4
:1036F000D6E750F80C3088684A6806F0F4FB40F0D2
:103700008870CDE7237801332370AEE7C1F8983095
:10371000C1F8A000013377E74FF0FF30CBE700BFDF
:1037200000ED00E0ECB30000E61500200000F0FF23
:103730000000081100000206F0B587B007460E46EB
:1037400014460021102268461D4607F04EF8022359
:103750008DF802302A46054B019321466846CDE993
:10376000047604F06DFC07B0F0BD00BF079F0000B9
:1037700008B5024B1B689847002008BD4012002086
:10378000034B044A1860937843F002039370704728
:1037900040120020E800002008B50649064821F044
:1037A0000701C1F1005202F5802205F0F2FD002070
:1037B00008BD00BFC7440020441200200E4A012368
:1037C000C2F840354FF080424FF08051C2F8783552
:1037D000D1F83001082808D1D1F83411052904D8CE
:1037E0000648415C09B1C2F838364FF080430122E7
:1037F000C3F880250020704700E001400BBF0000A7
:1038000020B1034B800143F001031847704700BF0C
:1038100050B0000014280ED8084A12F8103053B1E6
:1038200002EB4002527832B108684343002093FB18
:10383000F2F30B6070476FF01500704715BF000082
:1038400008B502F0F9FD094A904203460DD0084838
:10385000084A012106F048FA07486FF00403436262
:10386000BDE80840143006F059BB08BD0000AD0BA0
:10387000E8AF00003FBF000000000020044B93F8B9
:103880003A3013B1034802F087BEFFF7D9BF00BF3B
:103890000000002051390000094BBFF35B8F53E853
:1038A000002F511C43E800100028F8D1BFF35B8FB4
:1038B0000AB9FFF7E3BF6FF00F025A62704700BF0B
:1038C0000000002080B500AF88B06A46094BC2E90D
:1038D00005304FF400739383074B42F8103F0748BD
:1038E00000234FF4E251FEF797FD6FF00400BD4650
:1038F00080BD00BF5DBF000003000001E8AF000015
:1039000010B50F49002204460E4806F038FF00208B
:1039100002F062FC0C4B984204D02068BDE81040D5
:10392000FFF7D0BF002201210720FFF7E3FC074883
:10393000C36813B9043006F0F1FA002010BD00BFCF
:1039400099380000600000200000AD0B000000204E
:103950002DE9F0410778002F40F09380544CE26A43
:1039600094F850C01CEA020F25460AD1514B0022A0
:10397000C3F80025A36A6BBB4F48BDE8F04106F0D1
:10398000CDBAB0F808E0A66D4FEA4E0E0123D0B2D2
:1039900018420AD094F898200CEA030192B121B1A0
:1039A00032460EEB0601914204D15B009BB26345A7
:1039B000EED9DBE732F9028BB8F1000FB8BF22F87D
:1039C000027CF0E721B1B6F900100029B8BF3280BF
:1039D0000236EAE7236CB4F84C2033B13749384853
:1039E0009847012828D002283FD0B4F84C30B4F8CA
:1039F00048209A4239D90133A4F84C3094F89830D1
:103A0000F3B9A36D94F8512003EB4203A36594F836
:103A10005110A06D02F0CAFC2A4A904203460FD012
:103A2000294A2A48012106F05FF96FF00403224871
:103A3000636206F073FA03E094F89830002BE6D046
:103A4000E36B1BB9BDE8F041FFF718BFBFF35B8F15
:103A500055E8003F5A1E45E800210029F8D1BFF380
:103A60005B8F012BEEDCBDE8F081E36B002B83D094
:103A700094F89830002B7FF47FAF154806F08BFE4A
:103A80007AE7022F10D102F0D7FC0E4A904203468B
:103A9000E9D00E480F4A012106F026F904486FF0DC
:103AA00004034362143068E7052FDCD164E700BFEC
:103AB00000000020007000401400002028000020BA
:103AC00088AC00000000AD0B7DBF0000E8AF000037
:103AD000600000203FBF000030B587B00A790023A6
:103AE000CDE903338DF8143002F01F030C46072B89
:103AF000C2F304018DF8151008D9534A5348012127
:103B000006F0F2F86FF0150007B030BD61798DF85E
:103B1000131012F0200114BFA2790A468DF8142068
:103B200022780C2A1ED8DFE802F00A07111D131DA7
:103B3000151D1D17191D1B0001228DF80E2062781E
:103B4000032A15D0042A16D0414A0CE00222F4E7D9
:103B50000322F2E70422F0E70522EEE70622ECE773
:103B60000722EAE73B4A3948012106F0B4F8C9E7E1
:103B700001228DF80F20628844F20A00824227D881
:103B800043F6FE70824203D8002A52D0324AEAE756
:103B9000A2F57F523F3A0B2AF8D801A050F822F044
:103BA0003B3C00008D3B00008D3B00008D3B000046
:103BB000F33B00008D3B0000ED3B00008D3B00001F
:103BC0008D3B00008D3B00008D3B0000333C00002E
:103BD00044F2140082422ED044F2280082422CD0BB
:103BE00044F20F008242D1D1032200E001228DF87D
:103BF00010201A4A012505FA03F392F85000DBB2AF
:103C0000E9B1A17909B18DF8115020EA030303A8A5
:103C100082F8503002F02AFB114B984211D02379E0
:103C200003F01F030F4A00900121084806F066F8D0
:103C300068E70222DBE70422D9E70522D7E703433E
:103C4000E5E7002060E700BF98BF0000E8AF000094
:103C5000CEBF0000AFBF0000F2BF00000000002098
:103C60000000AD0B1DC000002DE9F0430E4685B0ED
:103C70004FF0FF337F484FF0FF3203F0A7F877682B
:103C80007B1EFE2B05D97C4A7C48012106F023F8D7
:103C900010E000252C4627FA05F3DA0715D502F0C7
:103CA000F5FAE840C3070ED4754A2B467348012144
:103CB00006F01AF86FF015046E4806F02FF920464A
:103CC00005B0BDE8F0830134E4B20135082DE2D13E
:103CD0000CB96C4AD8E7337CA3F10802062A0FD846
:103CE000DFE802F0100E120E040E0C000221012C6F
:103CF000727C0BD0002A45D0634AC5E70321F6E762
:103D0000624AD3E70021F2E70121F0E7082A06D84A
:103D1000DFE802F008080808080808080800134649
:103D20005B4AC3E733686BB3186801387F2829D82A
:103D30008DF8082000228DF809201B68554A1B01C8
:103D4000013BADF80A30012382F898308DF80C3031
:103D500002AA514B384602F0CFFA504B9842A9D1F3
:103D60003368620013B19B8903FB0222F36893421C
:103D700011D2424800920121494A05F0BFFF6FF07D
:103D80000B0499E7434B002083F89800424B3846D8
:103D900002F082FAE1E73F4D85F8514095F89830FE
:103DA000B068A8652146A9462BB133689B890133C9
:103DB00013FB04F4A1B202F0F9FA384B98428046A2
:103DC00002D0384A034671E737460FCF364C0FC44E
:103DD0003B68236000276F623368002B46D00FCB0F
:103DE000261D86E80F00EB6BAE62A5F84C70002B29
:103DF0003CD0BFF35B8F59E8003F49E80072002ACE
:103E0000F9D1BFF35B8F95F89810E9B9E86B274EAD
:103E1000274A4FF40047E0FB076100233046FCF7D8
:103E200025FE0022CDE90001002304F1280003F063
:103E3000EBFD20484FF0FF324FF0FF3302F0C6FF9A
:103E400000B168626C6A37E702F0F6FA4045034653
:103E5000EFD0194A0948012105F046FF6FF004032D
:103E6000A4F124006B6206F059F8E2E7FFF706FDC3
:103E7000DFE700BF040000203DC00000E8AF000005
:103E80005BC0000075C00000B0C000008BC0000027
:103E9000E2C0000000000020513900000000AD0B1E
:103EA00005C100007DBF0000280000203F420F0038
:103EB00040420F00140000202AC10000084B70B5DA
:103EC000C31A0D4607499B10044659430648402231
:103ED00006F02FF82B4601462046BDE870401847F3
:103EE00064120020B76DDBB608AC000073B50C4C53
:103EF0000C4A4023041B00930D460B460A49A410AC
:103F000061430646094806F03FF8011E05DA3046CF
:103F10002B4602B0BDE87040184702B070BD00BF2C
:103F200064120020F19F0000B76DDBB608AC000002
:103F300010B5EFF31184202383F31288BFF36F8F42
:103F4000074A136823F00201DB07116002D4012045
:103F500006F053F984F31188BFF36F8F10BD00BFD3
:103F6000B4120020002270B5012104461046FFF76C
:103F7000C1F90F4801F0B0F90E4B984215D101F08C
:103F8000BBF926690C49304605F079FD00280BDBAA
:103F9000012535642469084904F11C0005F06FFD12
:103FA000002801DBE564002070BD6FF00400FBE732
:103FB000B54000000000AD0B0CB400001FB500229E
:103FC0000123CDE90223094ACDF800D06B46CDF894
:103FD00004D006F006F8002805DB4FF480420023E9
:103FE000684602F0F3FE05B05DF804FB0FA0000088
:103FF00030B4104B0C2202FB003301460020D3E901
:104000000E529863EFF31180202484F31288BFF3DB
:104010006F8F1C6C04F0C00444F002041C6480F335
:104020001188BFF36F8F1DB12B46034830BC184772
:1040300030BC70476412002008AC000010B4EFF3ED
:104040001182202383F31288BFF36F8F1748016812
:1040500041F002040460C80707D482F31188BFF35B
:104060006F8F012010BC01F059B94FF08041D1F899
:104070000C04D1F80C14C907EFD5EFF3118083F3CA
:104080001288BFF36F8F0A490B6C03F0C00343F033
:1040900002030B6480F31188BFF36F8F82F31188E2
:1040A000BFF36F8F002010BCFFF7A2BFB412002037
:1040B0006412002010B1012804D07047034B1B6C20
:1040C0005B0701D1FFF794BF704700BF6412002067
:1040D0002DE9F0413849BFF35B8F0746012251E8D3
:1040E000003F41E800200028F9D1BFF35B8F33B9CE
:1040F000324933484B60CB608A6005F0D3FC7B1EAD
:10410000012B2BD8012F07D14FF08043D3F81C345B
:1041100003F00303012B21D006F029FA0546F8B974
:10412000284B1B78E3B14FF080430222C3F80823E9
:104130000646DFF894804FF08044D4F81824D4F871
:104140001834D20315D503F00303012B01D0012F3E
:104150000FD155B386F31188BFF36F8FBDE8F0819F
:10416000EFF31186202383F31288BFF36F8F0125AD
:10417000DFE7ADB1304605F0A7FED4F81835002BC7
:10418000DBD1D4F80421002AD7D0C4F80431D4F804
:1041900004310123C4F81835C8F88031A360CCE796
:1041A0000021212006F07FFAE7E74FF0804302224A
:1041B000C3F80423D2E700BF601200205012002091
:1041C00080120020E915002000E100E008B5074852
:1041D00006F01AF938B10648FFF7D2FA0448FDF79D
:1041E00049FD002008BD6FF01200FBE768AC00003D
:1041F000F54100000A2838B5074D044604D1AB68E4
:104200000D215B6828469847AB6803485B68E1B2BC
:104210009847204638BD00BF68AC0000F0B5164690
:104220004268107B01F01F0444EA4014106987B013
:10423000002872D0B6F5001F02F1100506D1214604
:10424000284606F05AF8002007B0F0BD01A8002764
:10425000B6F5800F0197476039D1B3F1007F14BFE5
:10426000052304238DF804300023CDE904030393D0
:10427000936823FA01F111F001010DF103073ED11A
:10428000B6F1A07F3BD104F01F03620903F5E07390
:1042900028D0012A47D1254A52F82330DB072ED4F3
:1042A0003A462146284601F023FB214B98421CD078
:1042B000029703AA2146284601F0DAF91D4B9842DD
:1042C0002ED101222146284601F06AFBBBE7B3F15B
:1042D000C06F05D0B3F1007F14BF01230223C1E7F3
:1042E0000323BFE74FF0A042D6E73946284601F046
:1042F0004FFB104B9842DBD06FF00B00A4E73A461F
:104300002146284601F0F4FA0A4B9842D1D19DF893
:104310000310284601F034FBCBE76FF0850093E7EC
:104320006FF0150090E751F82330FFDE00030050D6
:104330000400AD0B0000AD0B420970B5034602D07E
:10434000012A17D070BD0D4E326951680029F9D08D
:1043500003F01F0301250C689D400029F2D08A68F4
:104360002A4002D04B68304698472CB1236821463A
:104370001C46F2E7024EE7E72346F8E748AC0000A8
:1043800028AC000038B545682B69B3B11035284614
:1043900001F0ECFA044680B90146284601F0C2FA61
:1043A000084B98420BD108492246284601F09AFA58
:1043B000224605210620FEF79DFF002038BD6FF044
:1043C0000400FBE70000AD0B394300002DE9F0438A
:1043D000466840F20635D006337B87B002EA050511
:1043E00054BFC2F34010032001F01F07B5F5837FCF
:1043F000144647EA43178DF8030044D00FD8062D22
:1044000018D007D8B5B1022D3FD06FF0150007B016
:10441000BDE8F083B5F5807FF7D101250AE040F2D1
:104420000222954233D0B5F5407F32D0B5F5007FFA
:10443000EBD1022522032ED5726801238B40C2F8EE
:104440000835326992BB07F01F037F092BD0012F7B
:1044500079D13F4A02EB830284F48033D2F800170B
:10446000C3F30043C4F3404444EA430421F4E1614C
:1044700044EA800421F0070144EA05230B43C2F813
:1044800000370020C3E70725D4E70425D2E7052538
:10449000D0E70325CEE7630341BF012372688B4059
:1044A000C2F80C35CDE74FF0A042D3E710360DF13E
:1044B00002023946304601F01BFA14F4403F8046B0
:1044C0000CD13946304605F016FF224B9845D8D11D
:1044D0009DF80210304601F053FAD2E701AB4FF0DD
:1044E000000903AA39463046CDE90439CDE90199DE
:1044F000CDF80C9001F0BCF8164B984285D114F41D
:10450000003315D09DF803308DF80E3084F48034DC
:10451000C4F300444B4603AA394630468DF80C508C
:104520008DF80D4001F060F90A4B9842CDD06CE750
:10453000CDE9043303AA0DF1030339463046039352
:1045400001F096F8F0E703F5E07352F82330FFDE50
:10455000000300500000AD0B036803F01F025B096D
:10456000026004D0012B034818BF002070474FF0B1
:10457000A0407047000300502DE9F04FDFF8949100
:10458000DFF894A185B01546834600EB810140F227
:10459000FF18594503D1002005B0BDE8F08FDBF8C6
:1045A00000305E04C3F3C322C3F3080400F1AC80FF
:1045B0001B0E19F80270444508BF4FF0FF34222B40
:1045C00000F2A580DFE803F012191F22252B22A399
:1045D000A3A3A33B68A3A3A3A3A3A3A3A3A36B81A8
:1045E0008487A3A3A38A9194979A9D00C5F80C454C
:1045F000601C5ED10BF1040BCBE7C5F81445621CBF
:10460000F8D000265FE0C5F80845F1E7C5F8104589
:10461000F5E7631CC5F80845ECD0002604E0661CED
:10462000C5F80C45E6D0012603A80394FFF794FFD4
:10463000039B012202FA03F3C0F80C3508E0C5F829
:104640000845002FDBD1631CD4D000263246062754
:10465000DBF80030019303F40040002818BF00226B
:1046600003A8009218BF01260394FFF775FF039C6F
:10467000019B009A00EB8400C3F3412CD0F8004763
:104680003B0243EA8C03134304EA0A04234343EA4C
:104690004603C0F80037ADE7C5F80C45D1E7C5F8CB
:1046A0006045601CDBF80030A4D0C3F30043002B4E
:1046B000B9D003A80394FFF74FFF039B012606FA26
:1046C00003F3C0F808353246C2E7C5F86445E8E7A9
:1046D000C5F86845E5E7C5F86C45E2E7C5F8244547
:1046E000621C87D000220126B2E7C5F828457FE783
:1046F000C5F83045F4E7C5F83445F1E7C5F8384565
:10470000EEE7C5F83C4573E76FF0150044E76FF03E
:10471000850041E7A5C10000F0F8FCFF036803F045
:104720001F025B09026004D0012B034818BF002060
:1047300070474FF0A040704700030050F0B50446AA
:1047400083B0002200AF01211C20FEF7D3FD60687A
:1047500023692E4A00F1080101F0F2FA2C4B98422D
:1047600018D023686C4688B06A462A49C2E9051306
:104770004FF400739383284B42F8103F27480023DF
:104780004FF4E251FDF748FE6FF00F00A5460C37DD
:10479000BD46F0BD6568AE6B3A1D0021304605F0A0
:1047A0008EFC002805DB7B68326819791868FFF7F2
:1047B000E3FE002631462B6801F5AC7253F8223037
:1047C000002B0EDB7B60381DFFF7A8FF7A68D0F85E
:1047D0000435D34013F001031CBF01238B40334346
:1047E000DEB201310429E6D1002301206268916A1A
:1047F00000FA03F232420CBF01220022D20321F858
:1048000013200133042BF1D10020C0E7E5A0000004
:104810000000AD0B5DBF00000300000128B00000E8
:104820002DE9F341BDF820C0466804690329074615
:104830000D460CF0010C06D9514A0B465148012196
:1048400005F052FA1AE0B17F012908BF5B084FF06A
:10485000010108BF520801FA05F0002B66D09A4208
:1048600067D9D4F800E072451DD094F804E03EEA20
:10487000000E08D0444A434805F02DFA6FF01500A9
:1048800002B0BDE8F0811146B1F5004F44D222607C
:1048900084F805E0326896F81E80C2F80CE5C2F88C
:1048A0000485C2F80815627923FA02F292B24FF039
:1048B000010E79688CF00108896A42EAC83221F851
:1048C00015205FFA80F8BEF1000F41D1326805F57E
:1048D000AC7552F82520002A0FDBBCF1000F4BD03D
:1048E000B3FA83F35B094BBB01A80192FFF716FFF4
:1048F000019A01239340C0F80C35217921EA08017F
:10490000217151B3A3797BBB1023012206F1280149
:10491000304601F03BFA25E00EF1010EBEF1080F22
:104920004FEA5101B0D11346184A87E79E461A460E
:10493000BFE74FF0000E47F6FF72BAE701A80192F9
:10494000FFF7ECFE019A01239340C0F80835D4E745
:10495000237948EA03032371D4E7786801F054FA15
:104960000123A37100208BE70023A371304605F0DB
:1049700025FD0028FAD0C7E7003B18BF0123B2E7A6
:10498000ADC1000028B00000C2C10000D7C10000C6
:104990002DE9F041044647680D4605F0E8FD4FF06B
:1049A000200888B9264B1B7873B16426606805F02F
:1049B000BAFBF0B9012005F012FC013EF6D100214E
:1049C000212005F070FEF0E7EFF31186314688F301
:1049D0001288BFF36F8F606805F0A5FBA8B986F356
:1049E0001188BFF36F8FEFE786F31188BFF36F8FE6
:1049F000E5E7EFF31186314688F31288BFF36F8F36
:104A0000606805F090FB0028EED0BB691D706368FC
:104A1000BA691B680020C3F844250122C3F8482561
:104A2000C3F82001D3F82041C3F85801D3F8580146
:104A30009A6081F31188BFF36F8FBDE8F08100BFEA
:104A4000E9150020F8B50022054601210220FEF7F5
:104A500051FC0220FEF732FC6C680121E06805F091
:104A600093FB6B681A682369C2F82435617D237D46
:104A70000B43A17D0B43C2F86C356E68D6E9004349
:104A800013F001034AD02F6907F1080005F0B3FBCA
:104A90002F4B984207D02F482F4A012105F01BF9D0
:104AA0006FF00400F8BD387A04F10C0204F590713F
:104AB00005F097FB387A012707FA00F000F0A4FB15
:104AC0000823C4F80035B369C4F844350023C4F89A
:104AD0004835A760D4F85831002BFBD00026C4F825
:104AE00000656B683146D86805F04EFB6D6831464D
:104AF0002C68E86805F048FB0823C4F800352A7ADA
:104B000052B9EB69C4F834350123C4F83835C4F818
:104B10001021D4F8102123600020C3E70822C4F834
:104B20000025B269C4F84425C4F848350123A360C0
:104B3000D4F82031002BFBD00023C4F82031D4F866
:104B400020310123E3604FF48073C4F80433C1E7DC
:104B50000000AD0B38B0000017C2000070B5012393
:104B600083400E4ABFF35B8FDC4352E8001F01EA2B
:104B7000040542E80056002EF7D1BFF35B8F4FF4D7
:104B8000803282400648C0F80823BFF35F8FBFF32E
:104B90006F8F0B4214BF0120002070BDE81200206F
:104BA0000010014070B40E49D1E90034D01AC31886
:104BB00044F1000422F07F46C1E90034A6F5001359
:104BC000B3F5400F09D2074B1B681A0A1B069C1944
:104BD000054B42F10005C3E9004570BC02F02CBE54
:104BE000C80A0020EC120020D00A002011B3BFF345
:104BF0005B8F0123104A834052E800CF4CEA030C3C
:104C000042E800C10029F7D1BFF35B8F0B4A4FF494
:104C100080338340C2F80433094BBFF35B8F1B68BA
:104C2000BFF35B8FC340DB0742BF064B4FF400323C
:104C3000C3F80021704700BFE812002000100140B7
:104C4000E412002000E100E00D4B1868010A0006A4
:104C5000BFF35F8F0B4BD3F80435181841F10001F7
:104C6000B3F5801F0AD2084BD3E90023904271EBC1
:104C7000030303D210F1807041F10001704700BFBF
:104C8000EC12002000100140D00A00202DE9F04F66
:104C900085B016461F469DF840A00446FFF75EFF0C
:104CA0000190FFF7D1FFB04271EB070354D23E4BA6
:104CB000301A67EB0101984271F100014FD23B4B72
:104CC00003EB0413D3E902239F4208BF96425ED050
:104CD00037494FF4803804F1500508FA04F8AD0064
:104CE000C1F848832046ADB205F05DFA26F07F4B4F
:104CF00005F1804504F5A87305F58835DC464FF0CD
:104D000003090293029A2CF07F4341F82230C1F844
:104D10004483D1F80435274A6FF00200C01A60447A
:104D200020F07F40904232D9286868B1D1F804352C
:104D30000393A3EB0B0020F07F40B0F5000F26D9C2
:104D4000204605F030FA039BBAF1000F07D109EBBA
:104D5000030C09F10109D5E7BAF1000F09D06FF092
:104D6000150520460199FFF741FF284605B0BDE82B
:104D7000F08F0123104ABFF35B8FA34052E8000F6E
:104D8000184342E800010029F8D1BFF35B8F0749BF
:104D90000E98230101EB0412C8500F9B5360C2E927
:104DA00002670025DDE700BF01008000B80A00208F
:104DB00000100140FDFF7F00E41200207FB51C4C75
:104DC0001C4BC4F80833C4F848331B4B00254FF084
:104DD000FF304FF0FF31C4F80855C3E902014FF42A
:104DE0008033C4F80433154B02264FF400320121FE
:104DF000C4F804631120C3F880212A46FEF77AFA2A
:104E00001120FEF75BFA0E4A0123A36023601360B2
:104E10000C4B0D4A0093CDE9015500232846FFF7BE
:104E200035FF3046FFF754F9284604B070BD00BF87
:104E30000010014003000F00B80A002000E100E06C
:104E4000E8120020A54B0000FFFF7F002DE9F7438B
:104E50002F4CD4F8043399070BD5D4F8043143B15F
:104E60002C4A0023C4F80431D4F804311368013308
:104E70001360D4F80433DA0329D5BFF35B8F264BD4
:104E800053E8002F22F0010143E800100028F7D179
:104E9000BFF35B8FD30702D4D4F84031BBB10025F8
:104EA000C4F84051D4F84031FFF7CEFEEFF3118241
:104EB000202383F31288BFF36F8F184BD3E9026767
:104EC000B042B94106D282F31188BFF36F8F03B0AD
:104ED000BDE8F0834FF0FF384FF0FF39C3E9028996
:104EE000D3E900101D604FF48033C4F84833C4F890
:104EF0004051D4F8403182F31188BFF36F8F0029FD
:104F0000E5D0009032463B4628468847DFE700BFA1
:104F100000100140EC120020E4120020B80A00202A
:104F200030B5431C124C85B005D08442A8BF04465E
:104F3000012CB8BF0124FFF787FE0E4B0C4DD3E9BF
:104F40000013401AB0F5000F10D22218AA4228BF51
:104F50002A4652184FF0000007490091CDE90100A0
:104F600043F10003FFF792FE05B030BD2A46F0E79B
:104F7000FFFF7F00C80A0020A54B000008B5FFF71F
:104F800063FE024B1B68C01A08BD00BFC80A0020A0
:104F90004FF08053D3F83021082A06D1D3F83431AA
:104FA000052B02D8024AD05C70470020704700BF32
:104FB0005AC20000024AD2F80034002BFBD07047DE
:104FC00000E0014010B54FF08053D3F83021082A9B
:104FD0004ED14FF080420021C2F80C11C2F81011DE
:104FE000C2F8381502F54042D3F80414C2F820156F
:104FF000D3F80814C2F82415D3F80C14C2F82815F5
:10500000D3F81014C2F82C15D3F81414C2F83015C4
:10501000D3F81814C2F83415D3F81C14C2F840158C
:10502000D3F82014C2F84415D3F82414C2F8481554
:10503000D3F82814C2F84C15D3F82C14C2F8501524
:10504000D3F83014C2F85415D3F83414C2F86015EC
:10505000D3F83814C2F86415D3F83C14C2F86815B4
:10506000D3F84014C2F86C15D3F84434C2F8703544
:10507000FFF78EFF18B13A4B3A4AC3F88C26FFF778
:1050800087FF18B1384BFB22C3F81825FFF780FFC4
:1050900070B14FF080414FF08053D1F8E42ED3F837
:1050A000583222F00F0203F00F031343C1F8E43E1D
:1050B000FFF76EFF20B12D4B4FF40072C3F840266E
:1050C0004FF08053D3F83031082B1AD14FF0804382
:1050D000D3F80024D20744BF6FF00102C3F80024C4
:1050E0004FF08053D3F83431052B02D8204AD35CDB
:1050F0003BB14FF01023D3F808224FF08043C3F8A0
:1051000058254FF01023D3F80022002A03DBD3F8F0
:105110000432002B22DA174901234FF01020C1F886
:1051200004351224FFF746FFC0F80042FFF742FFA4
:10513000C0F80442FFF73EFF0023C1F80435FFF733
:1051400039FFBFF34F8F0C490C4BCA6802F4E06281
:105150001343CB60BFF34F8F00BFFDE710BD00BF0F
:10516000005000404881030000F0004000900240E1
:1051700054C2000000E0014000ED00E00400FA0528
:1051800030B50468CCB1BFF35B8FB4FA84F3C3F1DC
:105190001F03DBB201229A4024EA020250E8005FBA
:1051A000A54204D140E8002CBCF1000FF6D1BFF3BA
:1051B0005B8FE6D102480B7030BD0248FCE700BFB0
:1051C0000000AD0B0200AD0B10B50368CB40DB0750
:1051D00014D401238B400268BFF35B8F43EA0201C2
:1051E00050E8004F944204D140E8001CBCF1000F8D
:1051F000F6D1BFF35B8FEED1014810BD0148FCE74B
:105200000000AD0B0400AD0B014BC3F80405704763
:1052100000F00140F7B50546F8B101281BD1042282
:105220004FF4807301464FF0804003440244C0F8BD
:1052300008130026012111601E608D421B688DF845
:10524000071008BF0DF1070642F210744FF08047B7
:1052500045B1012D29D003B0F0BD0C224FF482736B
:105260000221E0E7D7F8183403F4803366B9002B45
:10527000F1D0012004F0B3FF013CF3D1EBE704F0DF
:10528000AEFF013CE4D1E6E7D7F8182402F00302B0
:105290003260002BDFD09DF807000128EFD0012DF0
:1052A000D9D10C4B00225A71D5E7D7F80C3403F44E
:1052B00080333EB9002BF4D0012004F090FF013C74
:1052C000F3D1C8E7D7F80C2402F001023270002BAA
:1052D000E1D1E6E7F0120020044B1A7922B901224D
:1052E00018609A800248704702487047F012002008
:1052F0000000AD0B0C00AD0B08B5074B1B682BB1C4
:105300000020FDF7E9FF08B9FDF7D8FF4FF0804313
:105310000022C3F8182508BDF012002010B510B106
:10532000012843D010BD4FF08043D3F81814D3F8B0
:105330001824C80321D502F00303012B04D013B1B4
:105340000020FFF767FF00234FF080420220C2F8E1
:10535000183508224FF4827303F18043002119604D
:1053600002F180421C6801241460154A12680AB3D5
:105370004FF08043C3F80403D4E7D3F81424D107D3
:10538000E1D5D3F81C249207DAD40D4A12681AB179
:105390000222C3F80423C5E7D3F80421002AFBD076
:1053A0000022C3F80421D3F80431BBE700224FF4F4
:1053B0008073D1E71A68002AFCD019601B68B1E736
:1053C000F0120020F8B54FF080431C4ED3F8044390
:1053D0000125002704B9F8BDB4FA84F0C0F11F001C
:1053E000830003F580739BB203F1804305FA00F25A
:1053F000196892B224EA02040029EBD01F601B68EE
:105400004FF08043012AC3F8082305D0022A08D0B0
:105410003368C0B29847DDE77379002BDAD1727137
:10542000F6E7D3F81814D3F818148907F0D1C3F8A5
:105430001855C3F804239D60CCE700BFF01200208C
:10544000036803F01F025B09026004D0012B0348CC
:1054500018BF002070474FF0A04070470003005075
:10546000034A430900F01F00D35C1844C0B27047E0
:1054700060C2000070B50546FFF7F2FF0C4C083023
:105480000E4634F81030DA0508D5C3F3432304EB95
:10549000C302284654F8333052689847A3682BB1AA
:1054A000E26831462846BDE87040184770BD00BF2D
:1054B000F812002008B5FFF7D3FF034B083033F88C
:1054C0001000400B08BD00BFF812002008B5FFF720
:1054D000C7FF034B083033F81000C0F3400008BD8D
:1054E000F812002008B5FFF7BBFF034B083033F874
:1054F0001000C0F3401008BDF8120020034611F060
:10550000010010B5CCB20DD1A207C4F3400012D5F2
:10551000094AD2F820055860C2F82005003818BFA3
:10552000012008E04FF0A041D1F820251A60C1F811
:105530002025002AE8D010BD0003005010B5FFF769
:105540008FFF124A083032F81030D9051CD5C3F34A
:10555000432123F4F85322F8103002F10E04002006
:1055600034F8023F13F4807F03D0C3F343239942FE
:105570000AD001303028F3D1002342F831300448FA
:10558000BDE81040FFF720BE10BD00BFF81200209C
:105590007013002001F18051F0B501F5C2510446AD
:1055A000114A00208900012506468A420BD10F4B83
:1055B000D3F87C2132B10022C3F87C21D3F87C31AE
:1055C00040F00040F0BD02F14043A3F5C2439B0808
:1055D00005FA03F31C4204D0176817B11660176868
:1055E00018430432E1E700BF006100400060004062
:1055F000F7B506460846FFF733FF194F00F10805D7
:105600000C4637F81530DB0727D5304604F04FFE3F
:105610002046FFF767FF40B12046FFF74BFF316898
:1056200000F5A270002341F820302046FFF786FFE6
:10563000002301A827F815300194FFF701FF019B13
:1056400000EB8300074BD0F80027134043F0020320
:10565000C0F80037044803B0F0BD0448FBE700BFC2
:10566000F8120020F0F8FCFF0000AD0B0400AD0BB9
:105670002DE9FF41164680460846FFF7F1FE0C462D
:105680003168054609B32046FFF720FF18B12046D0
:10569000FFF728FF10BB0023CDE900338DF80E3053
:1056A0008DF80F300DF10F020B4620460DF10E0163
:1056B00004F0A5FD484A05F1080132F8113023F045
:1056C000020343F0010322F8113073685BB32046F4
:1056D0001F785968FFF7FAFE10B1C9B13F4825E0BD
:1056E0003D4A05F1080C32F81C3023F02003DB049E
:1056F000DB0C22F81C3059B1032FEFD87168D8F8B1
:10570000000049680978A7B901F5A27140F8217035
:10571000314A05F1080132F8113023F01C0343EA45
:10572000870322F81130B3686BBB2D4804B0BDE885
:10573000F08100EB810043EA4133D0F810E52EF010
:10574000030EC0F810E5D8F8000000EB810E43F01E
:105750002003DEF8100522F81C3020F44F3020F42E
:105760004070CEF810052002DEF8108500F47C5061
:1057700040EA074040EA0800CEF8100502EB41007D
:10578000A0F87C40C4E7D3E900672046FFF7D6FEC7
:10579000002ECAD0104CD4E90023964203D19F4278
:1057A00001D1002209E00F480DF10F01FFF7E8FCDD
:1057B0000B4B9842BAD19DF80F2044F8326004EBAD
:1057C000C20308355F6034F8153043EA422343F4DE
:1057D000807324F81530A8E7F81200200400AD0B00
:1057E0000000AD0B701300202DE9F0430C4685B08E
:1057F0008046204611461E46FFF732FE054629B375
:105800002046FFF763FE18B92046FFF76BFE18BB72
:10581000314F05F1080937F8193013F01C0F02D089
:105820004B78012B18D001238DF80F300023CDE9E0
:1058300000134A1C8B1C20460DF10F0104F0DFFC05
:1058400037F8193043F0030327F81930002E41D000
:105850002046FFF73BFE18B9204805B0BDE8F083AD
:1058600096F800C0D8F800301B4F0CF5A27200214A
:1058700043F8221005F1080237F8121021F0200138
:10588000C904C90C27F8121075781DB3D8F80000A8
:10589000B67800EB8C002D04D0F8103523F4991362
:1058A00023F4F853C0F81035230203F47C5305F4B5
:1058B00040353605D0F810E52B4306F4801641EA52
:1058C0004C31334341F0200143EA0E0327F8121014
:1058D000C0F810350248C0E7F81200200400AD0BF4
:1058E0000000AD0B014BC3E902127047F812002013
:1058F00010B508461446FFF7F5FD50B10846FFF70E
:10590000AFFD054B083033F8103004485B0B2370B3
:1059100010BD0348FCE700BFF81200200000AD0BEB
:105920000400AD0B70B50E4C94F88C500646A5B92A
:105930006022294604F1100004F057FF3068C0F8D7
:105940007C51D0F87C3140F30730FDF7B7FC0123E0
:10595000044884F88C30A36770BD0348FCE700BF9F
:10596000F81200200000AD0B0C00AD0B034B93F8B8
:105970008C00003818BF0120704700BFF8120020CB
:105980000079024B03EB8000FFF71EBCF8000020FB
:105990000079024B03EB8000FFF7F2BBF800002018
:1059A000F7B5054608461646FFF79CFD0C462968E4
:1059B000F0B12046FFF78AFD0746C8B92046FFF739
:1059C00079FD04B2A40004F580728F508A582968CA
:1059D0002144D1F8102542F00102C1F810252EB162
:1059E0002968012202FA00F3C1F8043303B0F0BDC4
:1059F000D1F80433002BA4BF4FF00043C1F80433A7
:105A00002046FFF72DFD0F4B083033F81030C3F35D
:105A10008203042B12D0052B12D001A80194FFF7AA
:105A20000FFD019AD0F81035D34003F00103991C03
:105A3000204603B0BDE8F04004F02ABC0321F7E79C
:105A40000221F5E7F81200202DE9F04F654BD3F85D
:105A50000403C0B287B0082140F00040FFF79AFD70
:105A6000051E2BDA0023032104A8CDE90433FFF738
:105A700045FDDFF874A10DF110084FF000094FF05B
:105A8000010B1AF8013B5949DA0803F007038A5C55
:105A900022FA03F3DA071CD408F10408B9F1000F65
:105AA00014D000214FF00040FFF774FD032104A83B
:105AB000FFF724FD0028DCD125F00045494E4C4F6E
:105AC0000124002D78D107B0BDE8F08F4FF0010917
:105AD000D7E7484B4B440093D8F800100029DBD09F
