:10000000C0310020B52100008F810000A121000037
:10001000A1210000A1210000A1210000000000009A
:100020000000000000000000000000001D23000090
:10003000A121000000000000BD220000A12100005D
:10004000B1240000B1240000B1240000B12400005C
:10005000B1240000B1240000B1240000B12400004C
:10006000B1240000B1240000B1240000B12400003C
:10007000B1240000B1240000B1240000B12400002C
:10008000B1240000B1240000B1240000B12400001C
:10009000B1240000B1240000B1240000B12400000C
:1000A000B1240000B1240000B1240000B1240000FC
:1000B000B1240000B1240000B1240000B1240000EC
:1000C000B1240000B1240000B1240000B1240000DC
:1000D000B1240000B1240000B1240000B1240000CC
:1000E000B1240000B1240000B1240000B1240000BC
:1000F000B1240000B1240000B1240000B1240000AC
:1001000081F0004102E000BF83F0004330B54FEAC8
:1001100041044FEA430594EA050F08BF90EA020F35
:100120001FBF54EA000C55EA020C7FEA645C7FEAC8
:10013000655C00F0E2804FEA5454D4EB5555B8BFEB
:100140006D420CDD2C4480EA020281EA030382EA5C
:10015000000083EA010180EA020281EA0303362DEE
:1001600088BF30BD11F0004F4FEA01314FF4801CC1
:100170004CEA113102D0404261EB410113F0004FD3
:100180004FEA03334CEA133302D0524263EB43038A
:1001900094EA050F00F0A780A4F10104D5F1200E28
:1001A0000DDB02FA0EFC22FA05F2801841F1000183
:1001B00003FA0EF2801843FA05F359410EE0A5F157
:1001C00020050EF1200E012A03FA0EFC28BF4CF088
:1001D000020C43FA05F3C01851EBE37101F000453E
:1001E00007D54FF0000EDCF1000C7EEB00006EEB4B
:1001F0000101B1F5801F1BD3B1F5001F0CD34908D5
:100200005FEA30004FEA3C0C04F101044FEA44522B
:1002100012F5800F80F09A80BCF1004F08BF5FEAB2
:10022000500C50F1000041EB045141EA050130BD92
:100230005FEA4C0C404141EB0101013C28BFB1F5A4
:10024000801FE9D291F0000F04BF01460020B1FAEF
:1002500081F308BF2033A3F10B03B3F120020CDAC2
:100260000C3208DD02F1140CC2F10C0201FA0CF0A0
:1002700021FA02F10CE002F11402D8BFC2F1200C05
:1002800001FA02F120FA0CFCDCBF41EA0C019040BB
:10029000E41AA2BF01EB0451294330BD6FEA040404
:1002A0001F3C1CDA0C340EDC04F11404C4F12002EF
:1002B00020FA04F001FA02F340EA030021FA04F301
:1002C00045EA030130BDC4F10C04C4F1200220FA58
:1002D00002F001FA04F340EA0300294630BD21FA96
:1002E00004F0294630BD94F0000F83F4801306BF5C
:1002F00081F480110134013D4EE77FEA645C18BF50
:100300007FEA655C29D094EA050F08BF90EA020FE6
:1003100005D054EA000C04BF1946104630BD91EADE
:10032000030F1EBF0021002030BD5FEA545C05D1E1
:100330004000494128BF41F0004130BD14F5800420
:100340003CBF01F5801130BD01F0004545F0FE4194
:1003500041F470014FF0000030BD7FEA645C1ABFC9
:10036000194610467FEA655C1CBF0B46024650EA00
:10037000013406BF52EA033591EA030F41F400212C
:1003800030BD00BF90F0000F04BF0021704730B5B2
:100390004FF4806404F132044FF000054FF0000187
:1003A00050E700BF90F0000F04BF0021704730B548
:1003B0004FF4806404F1320410F0004548BF40421D
:1003C0004FF000013EE700BF42004FEAE2014FEA72
:1003D00031014FEA02701FBF12F07F4393F07F4F4D
:1003E00081F06051704732F07F4208BF704793F050
:1003F0007F4F04BF41F40021704730B54FF4607463
:1004000001F0004521F000411CE700BF50EA010265
:1004100008BF704730B54FF000050AE050EA01020E
:1004200008BF704730B511F0004502D5404261EB7E
:1004300041014FF4806404F132045FEA915C3FF4BF
:10044000D8AE4FF003025FEADC0C18BF03325FEA5C
:10045000DC0C18BF033202EBDC02C2F1200300FA0D
:1004600003FC20FA02F001FA03FE40EA0E0021FA32
:1004700002F11444BDE600BF70B54FF0FF0C4CF420
:10048000E06C1CEA11541DBF1CEA135594EA0C0FD2
:1004900095EA0C0F00F0DEF82C4481EA030621EA0D
:1004A0004C5123EA4C5350EA013518BF52EA033548
:1004B00041F4801143F4801338D0A0FB02CE4FF0FA
:1004C0000005E1FB02E506F00042E0FB03E54FF02A
:1004D0000006E1FB03569CF0000F18BF4EF0010E22
:1004E000A4F1FF04B6F5007F64F5407404D25FEA1E
:1004F0004E0E6D4146EB060642EAC62141EA5551D1
:100500004FEAC52040EA5E504FEACE2EB4F1FD0C12
:1005100088BFBCF5E06F1ED8BEF1004F08BF5FEA90
:10052000500E50F1000041EB045170BD06F0004642
:1005300046EA010140EA020081EA0301B4EB5C04EF
:10054000C2BFD4EB0C0541EA045170BD41F48011E7
:100550004FF0000E013C00F3AB8014F1360FDEBF0C
:10056000002001F0004170BDC4F10004203C35DAE8
:100570000C341BDC04F11404C4F1200500FA05F36B
:1005800020FA04F001FA05F240EA020001F000420C
:1005900021F0004110EBD37021FA04F642EB060182
:1005A0005EEA430E08BF20EAD37070BDC4F10C04AC
:1005B000C4F1200500FA04F320FA05F001FA04F270
:1005C00040EA020001F0004110EBD37041F100015C
:1005D0005EEA430E08BF20EAD37070BDC4F1200567
:1005E00000FA05F24EEA020E20FA04F301FA05F2CF
:1005F00043EA020321FA04F001F0004121FA04F277
:1006000020EA020000EBD3705EEA430E08BF20EA46
:10061000D37070BD94F0000F0FD101F00046400080
:1006200041EB010111F4801F08BF013CF7D041EA02
:10063000060195F0000F18BF704703F00046520006
:1006400043EB030313F4801F08BF013DF7D043EAD7
:100650000603704794EA0C0F0CEA135518BF95EA8D
:100660000C0F0CD050EA410618BF52EA4306D1D114
:1006700081EA030101F000414FF0000070BD50EA33
:10068000410606BF1046194652EA430619D094EABD
:100690000C0F02D150EA013613D195EA0C0F05D1A7
:1006A00052EA03361CBF104619460AD181EA0301FB
:1006B00001F0004141F0FE4141F470014FF00000B3
:1006C00070BD41F0FE4141F4780170BD70B54FF04E
:1006D000FF0C4CF4E06C1CEA11541DBF1CEA1355CE
:1006E00094EA0C0F95EA0C0F00F0A7F8A4EB0504B0
:1006F00081EA030E52EA03354FEA013100F08880A7
:100700004FEA03334FF0805545EA131343EA12636F
:100710004FEA022245EA111545EA10654FEA002624
:100720000EF000419D4208BF964244F1FD0404F5DD
:10073000407402D25B084FEA3202B61A65EB030539
:100740005B084FEA32024FF480104FF4002CB6EBF6
:10075000020E75EB030E22BFB61A754640EA0C0076
:100760005B084FEA3202B6EB020E75EB030E22BFB6
:10077000B61A754640EA5C005B084FEA3202B6EBF7
:10078000020E75EB030E22BFB61A754640EA9C00B6
:100790005B084FEA3202B6EB020E75EB030E22BF86
:1007A000B61A754640EADC0055EA060E18D04FEA44
:1007B000051545EA16754FEA06164FEAC30343EAE4
:1007C00052734FEAC2025FEA1C1CC0D111F4801FB1
:1007D0000BD141EA00014FF000004FF0004CB6E7AA
:1007E00011F4801F04BF01430020B4F1FD0C88BF49
:1007F000BCF5E06F3FF6AFAEB5EB030C04BFB6EB54
:10080000020C5FEA500C50F1000041EB045170BD46
:100810000EF0004E4EEA113114EB5C04C2BFD4EB73
:100820000C0541EA045170BD41F480114FF0000EF7
:10083000013C90E645EA060E8DE60CEA135594EA73
:100840000C0F08BF95EA0C0F3FF43BAF94EA0C0F76
:100850000AD150EA01347FF434AF95EA0C0F7FF4EB
:1008600025AF104619462CE795EA0C0F06D152EA3F
:1008700003353FF4FDAE1046194622E750EA410623
:1008800018BF52EA43067FF4C5AE50EA41047FF434
:100890000DAF52EA43057FF4EBAE12E74FEA410297
:1008A000B2F1E04324BFB3F5001CDCF1FE5C0DD9CE
:1008B00001F0004C4FEAC0024CEA5070B2F1004F18
:1008C00040EB830008BF20F00100704711F0804F1B
:1008D00021D113F13872BCBF01F00040704741F4E0
:1008E00080114FEA5252C2F11802C2F1200C10FAE4
:1008F0000CF320FA02F018BF40F001004FEAC123C8
:100900004FEAD32303FA0CFC40EA0C0023FA02F36B
:100910004FEA4303CCE77FEA625307D150EA013341
:100920001EBF4FF0FE4040F44000704701F0004011
:1009300040F0FE4040F40000704700BF80F00040EF
:1009400002E000BF81F0004142001FBF5FEA4103A7
:1009500092EA030F7FEA226C7FEA236C6AD04FEAA7
:100960001262D2EB1363C1BFD218414048404140EC
:10097000B8BF5B42192B88BF704710F0004F40F49E
:10098000000020F07F4018BF404211F0004F41F4BA
:10099000000121F07F4118BF494292EA030F3FD086
:1009A000A2F1010241FA03FC10EB0C00C3F1200399
:1009B00001FA03F100F0004302D5494260EB400028
:1009C000B0F5000F13D3B0F1807F06D340084FEA93
:1009D000310102F10102FE2A51D2B1F1004F40EB88
:1009E000C25008BF20F0010040EA030070474900F0
:1009F00040EB0000013A28BFB0F5000FEDD2B0FA8D
:100A000080FCACF1080CB2EB0C0200FA0CF0AABFAF
:100A100000EBC25052421843BCBFD040184370474D
:100A200092F0000F81F4000106BF80F40000013253
:100A3000013BB5E74FEA41037FEA226C18BF7FEA2A
:100A4000236C21D092EA030F04D092F0000F08BF6C
:100A50000846704790EA010F1CBF0020704712F053
:100A60007F4F04D1400028BF40F00040704712F192
:100A700000723CBF00F50000704700F0004343F0F7
:100A8000FE4040F4000070477FEA226216BF08462D
:100A90007FEA23630146420206BF5FEA412390EAF0
:100AA000010F40F4800070474FF0000304E000BFE6
:100AB00010F0004348BF40425FEA000C08BF704797
:100AC00043F0964301464FF000001CE050EA01025B
:100AD00008BF70474FF000030AE000BF50EA010270
:100AE00008BF704711F0004302D5404261EB41015D
:100AF0005FEA010C02BF84460146002043F0B64382
:100B000008BFA3F18053A3F50003BCFA8CF2083AA6
:100B1000A3EBC25310DB01FA02FC634400FA02FCAF
:100B2000C2F12002BCF1004F20FA02F243EB0200B6
:100B300008BF20F00100704702F1200201FA02FC18
:100B4000C2F1200250EA4C0021FA02F243EB02000B
:100B500008BF20EADC7070474FF0FF0C1CEAD0524F
:100B60001EBF1CEAD15392EA0C0F93EA0C0F6FD010
:100B70001A4480EA010C400218BF5FEA41211ED0EE
:100B80004FF0006343EA501043EA5111A0FB0131DA
:100B90000CF00040B1F5000F3EBF490041EAD371AF
:100BA0005B0040EA010062F17F02FD2A1DD8B3F12B
:100BB000004F40EBC25008BF20F00100704790F09A
:100BC000000F0CF0004C08BF49024CEA502040EAEC
:100BD00051207F3AC2BFD2F1FF0340EAC2507047B2
:100BE00040F400004FF00003013A5DDC12F1190FF0
:100BF000DCBF00F000407047C2F10002410021FA62
:100C000002F1C2F1200200FA02FC5FEA310040F179
:100C1000000053EA4C0308BF20EADC70704792F0F2
:100C2000000F00F0004C02BF400010F4000F013A2A
:100C3000F9D040EA0C0093F0000F01F0004C02BF25
:100C4000490011F4000F013BF9D041EA0C018FE794
:100C50000CEAD15392EA0C0F18BF93EA0C0F0AD09A
:100C600030F0004C18BF31F0004CD8D180EA0100C0
:100C700000F00040704790F0000F17BF90F0004F59
:100C8000084691F0000F91F0004F14D092EA0C0F3B
:100C900001D142020FD193EA0C0F03D14B0218BFCE
:100CA000084608D180EA010000F0004040F0FE4014
:100CB00040F40000704740F0FE4040F440007047B0
:100CC0004FF0FF0C1CEAD0521EBF1CEAD15392EA2F
:100CD0000C0F93EA0C0F69D0A2EB030280EA010C1F
:100CE00049024FEA402037D04FF0805343EA1111B8
:100CF00043EA10130CF000408B4238BF5B0042F116
:100D00007D024FF4000C8B4224BF5B1A40EA0C00BA
:100D1000B3EB510F24BFA3EB510340EA5C00B3EBEC
:100D2000910F24BFA3EB910340EA9C00B3EBD10FDA
:100D300024BFA3EBD10340EADC001B0118BF5FEA2C
:100D40001C1CE0D1FD2A3FF650AF8B4240EBC25055
:100D500008BF20F0010070470CF0004C4CEA502016
:100D60007F32C2BFD2F1FF0340EAC250704740F465
:100D700000004FF00003013A37E792F0000F00F057
:100D8000004C02BF400010F4000F013AF9D040EAD5
:100D90000C0093F0000F01F0004C02BF490011F469
:100DA000000F013BF9D041EA0C0195E70CEAD15361
:100DB00092EA0C0F08D142027FF47DAF93EA0C0F48
:100DC0007FF470AF084676E793EA0C0F04D14B022C
:100DD0003FF44CAF08466EE730F0004C18BF31F0DE
:100DE000004CCAD130F000427FF45CAF31F00043D8
:100DF0007FF43CAF5FE700BF4FF0FF3C06E000BF71
:100E00004FF0010C02E000BF4FF0010C4DF804CD93
:100E10004FEA40024FEA41037FEA226C18BF7FEAA3
:100E2000236C11D001B052EA530C18BF90EA010FA5
:100E300058BFB2EB030088BFC81738BF6FEAE17034
:100E400018BF40F0010070477FEA226C02D15FEAD0
:100E5000402C05D17FEA236CE4D15FEA412CE1D03C
:100E60005DF8040B704700BF844608466146FFE703
:100E70000FB5FFF7C9FF002848BF10F1000F0FBDE5
:100E80004DF808EDFFF7F4FF0CBF012000205DF8DE
:100E900008FB00BF4DF808EDFFF7EAFF34BF012063
:100EA00000205DF808FB00BF4DF808EDFFF7E0FFFC
:100EB00094BF012000205DF808FB00BF4DF808ED4D
:100EC000FFF7D2FF94BF012000205DF808FB00BFB0
:100ED0004DF808EDFFF7C8FF34BF012000205DF892
:100EE00008FB00BF4FEA4002B2F1FE4F0FD34FF0B4
:100EF0009E03B3EB12620DD94FEA002343F0004387
:100F000010F0004F23FA02F018BF404270474FF034
:100F10000000704712F1610F01D1420205D110F0BB
:100F2000004008BF6FF0004070474FF0000070476E
:100F300053B94AB9002908BF00281CBF4FF0FF3140
:100F40004FF0FF3000F00CB8ADF1080C6DE904CEA5
:100F500000F008F8DDF804E0DDE9022304B0704792
:100F6000704700BF2DE9F04786468C460846089E2C
:100F7000154674461946002B40F0C2808542B2FAED
:100F800082F245D94AB1C2F1200300FA02FC2EFADE
:100F900003F3954043EA0C0C94404FEA154EA8B277
:100FA000BCFBFEF8230C0EFB18CC08FB00F943EA4F
:100FB0000C43994528D9EB1808F1FF3704D299451D
:100FC00002D9A8F102072B44A3EB0903A4B2B3FB97
:100FD000FEFC0EFB1C330CFB00F044EA0344A04271
:100FE00014D92C190CF1FF3304D2A04202D9ACF170
:100FF00002032C44241A43EA07401EB1D4400023C4
:1010000034607360BDE8F0874746DDE76346F1E78B
:1010100092BB431B01214FEA154EAFB2B3FBFEFC5E
:10102000200C0EFB1C330CFB07F840EA03439845E9
:1010300062D9EB180CF1FF3004D2984502D9ACF11B
:1010400002002B44A3EB0803A4B2B3FBFEFC0EFB8F
:101050001C330CFB07F744EA0344A7424ED92C1972
:101060000CF1FF3304D2A74202D9ACF102032C44A5
:10107000E41B43EA0040C0E7C2F1200320FA03F179
:10108000954090402EFA03F303434FEA154EAFB25A
:10109000B1FBFEFC0EFB1C10190C0CFB07F841EA1F
:1010A0000041884504FA02F422D969180CF1FF3096
:1010B00004D2884502D9ACF102002944A1EB080111
:1010C0009BB2B1FBFEFC0EFB1C110CFB07F743EAC5
:1010D00001439F420ED9EB180CF1FF3104D29F421D
:1010E00002D9ACF102012B44DB1B41EA004192E73B
:1010F0006046E3E76146F7E76046A3E76346B7E784
:10110000834206D916B9002108467BE7C6E900E00C
:10111000F9E7B3FA83F78FB9834201D3724508D850
:10112000BEEB020460EB030301209C461EB90021C4
:1011300068E73846FAE7C6E9004CF8E7C7F1200C43
:10114000BB4022FA0CF41C432EFA0CF120FA0CF3EB
:10115000B84001434FEA14490EFA07F5B3FBF9F81A
:101160001FFA84FE09FB18300B0C08FB0EFA43EA49
:1011700000439A4502FA07F240D9E31808F1FF301C
:1011800004D29A4502D9A8F102002344A3EB0A0332
:1011900089B2B3FBF9F809FB183308FB0EFE41EAEC
:1011A00003418E452CD9611808F1FF3304D28E45D6
:1011B00002D9A8F10203214443EA0040A0FB0298AF
:1011C000A1EB0E014145CE46434602D306D14D4523
:1011D00004D2B9EB020E68EB04030138002EA6D04E
:1011E000B5EB0E0261EB030101FA0CFC22FA07F3E6
:1011F0004CEA0303F940C6E9003198E74046C5E7E9
:101200004346D9E7000000002DE9F04F89B0059072
:101210002D4FBB68039300215B6806AA38469847A8
:10122000011E1ADBDDE9064B284EDFF8A490A4FB73
:101230000623049206FB0B38049821A3D3E900236C
:101240004146FFF775FE049B4FF0FF3A9A4579EB54
:101250000803054607D26FF085011E4809B0BDE8B6
:10126000F04F06F0A4BE059B642B28BF6423734394
:101270006422B3FBF2F3A3FB046403FB0B4421469B
:101280000FA3D3E900233046FFF752FEB24579EBB6
:1012900004040346DFD3854202D26FF01501DCE778
:1012A00000220092039A0021146838462A46A0477B
:1012B00001460028D1D109B0BDE8F08FAFF300801E
:1012C00000CA9A3B0000000098900000002D3101F8
:1012D000FFC99A3B0799000010B50A4C204607F059
:1012E000A5FA30B90848216806F061FE4FF0FF30DA
:1012F00010BD0020FFF788FF044806F058FE0020CC
:10130000F6E700BF989000001A9900003C99000091
:1013100008B50B4807F08AFA10B90A4806F047FEEC
:101320000748094983681B689847011E02DA074885
:1013300006F03DFE064B01225A600C221A8208BDBF
:10134000789000004F990000FE9500006899000019
:10135000A0000020F7B5FFF7DBFF174B174F9D6884
:10136000002617496B6814489847011E05DA15488E
:1013700003B0BDE8F04006F01ABE134BB3F90040CD
:101380002B8901A963430020019301F04BFA08B9AE
:10139000019C2413A4F5FA70FFF704F832463B468B
:1013A000FFF794F9FFF77AFA00F07AFA002140F695
:1013B000CD4007F07CFBD4E778900000000024408B
:1013C000A000002085990000B80E00202DE9F84308
:1013D000FFF782FF394B3A4A3A493B4800F07AF826
:1013E00007F0CFFB4FF47A72A0FB024302FB0133FC
:1013F000E40B44EA4344DFF8C48014444FF07C56C5
:101400004FF07E5700F05CFA304BDFF8C4901A784A
:101410000546002A3AD00022C9F800001A70284672
:1014200000F0DEF900F02CFA814600F0C9F901461F
:10143000B9F1000F35D14846FFF7E6FE484600F007
:10144000EFF91F4A1F492048434600F043F807F0D0
:1014500098FB4FF47A72A0FB025302FB0133ED0BB1
:1014600045EA4345651B002D0DDD4FF4004C40F26D
:10147000E73000214FF47A720023E5FB0C01FFF7FF
:1014800057FD07F014FB04F57A74BBE7D9F8001098
:10149000FFF75AFA3146FFF75FFBC9F800500546DF
:1014A000BDE72A463B46084806F0EEFB0546C0B2BB
:1014B000FFF7AAFE284600F0B3F9C8E70000204273
:1014C000000070420000F0419C05002060010020F7
:1014D0009805002083600023C36003614361024BD1
:1014E00001604260836170470000C84208B506F0A1
:1014F00021FC0A4A1368C31AC72B0DDD106000F0E7
:10150000BFF948B100F05CF94FF07E51FFF71CFACB
:10151000BDE8084000F032B908BD00BFBC0500209E
:1015200008B506F007FC0A4A1368C31AC72B0DDD7D
:10153000106000F0A5F948B100F042F94FF07E517B
:10154000FFF700FABDE8084000F018B908BD00BF79
:10155000B8050020014603488368DB690BB101220E
:10156000184770473890000010B506F0E3FB0A4AB0
:101570001368C31AC72B0EDD106000F081F980F0EC
:101580000104E4B2204600F06BF921460348BDE8AF
:10159000104006F0F6BB10BDC005002024960000E8
:1015A00008B5274807F042F9002845D04FF48031AC
:1015B000244806F0FAFB234806F0CAFB4FF48031BA
:1015C000214806F0F2FB204806F0C2FB4FF48031C0
:1015D0001E4806F0EAFB1D4806F0BAFB1C484FF413
:1015E000B01106F0E2FB1B484FF4B01106F0DDFB32
:1015F00019484FF4B01106F0D8FB4FF4B01117485A
:1016000006F0D3FB1648174B43604FF4006383602A
:10161000FFF7A0FF1448154B43604FF480538360DD
:10162000FFF798FF1248134B43604FF0007383603D
:10163000FFF790FF002008BD4FF0FF30FBE700BF31
:10164000389000003C960000349600002C96000074
:10165000249600001C960000149600000C960000D2
:10166000DC05002069150000D0050020ED14000005
:10167000C4050020211500002DE9F047FFF790FF79
:1016800010B1314806F093FC06F054FBDFF8BC8043
:10169000DFF8BC902F4F054615F57A7400F0F0F88E
:1016A0002546064648B901462B4806F06AFB3146F6
:1016B000384606F066FB314617E000F081F8064632
:1016C00000F09EF801463046FFF73CF941460646D9
:1016D000FFF7FEFB8246F8B10121384606F051FBC8
:1016E00000211D4806F04DFB00211C4806F049FB77
:1016F00006F020FB241A002CCEDD4FF4004640F209
:10170000E73000214FF47A720023E4FB0601FFF773
:101710000FFC07F0CCF9BFE730464946FFF7BAFBAC
:10172000064648B15146384606F02BFB51460A485A
:1017300006F027FB0121D8E70146384606F021FBD9
:1017400005480121B5E700BF9A9900000000A040BC
:101750000000A0C0149600001C9600000C9600002B
:1017600002460B46014804F075B800BF8401002012
:10177000014804F0E7B800BF8401002010B54FF025
:10178000FF3104464FF0FF30FFF7EAFF09492046DA
:10179000FFF79EFB50B908492046FFF77BFB38B99D
:1017A000064B1C60BDE81040FFF7E2BF014CF7E7B5
:1017B000014CF5E7000070420000A041B400002099
:1017C00010B54FF0FF304FF0FF31FFF7C9FF034B6B
:1017D0001C68FFF7CDFF204610BD00BFB4000020FD
:1017E00010B54FF0FF3104464FF0FF30FFF7B8FF60
:1017F000024B1C60BDE81040FFF7BABFF0050020A7
:1018000010B54FF0FF304FF0FF31FFF7A9FF034B4A
:101810001C68FFF7ADFF204610BD00BFF00500209B
:1018200010B54FF0FF3104464FF0FF30FFF798FF3F
:10183000024B1C60BDE81040FFF79ABFE80500208E
:1018400010B54FF0FF304FF0FF31FFF789FF034B2A
:101850001C68FFF78DFF204610BD00BFE805002083
:1018600010B54FF0FF3104464FF0FF30FFF778FF1F
:10187000024B1C70BDE81040FFF77ABFC20E00207B
:1018800010B54FF0FF304FF0FF31FFF769FF034B0A
:101890001C78FFF76DFF204610BD00BFC20E002070
:1018A00010B54FF0FF3104464FF0FF30FFF758FFFF
:1018B000024B1C60BDE81040FFF75ABFEC0500204A
:1018C00010B54FF0FF304FF0FF31FFF749FF034BEA
:1018D0001C68FFF74DFF204610BD00BFEC0500203F
:1018E0002DE9F04F3A4887B006F061FB394806F021
:1018F0005EFB07F046F94FF47A72A0FB020302FB8D
:101900000133C00BDFF8D080DFF8D090DFF8D0A033
:1019100040EA4345FFF7B4FF0646FFF751FF044690
:10192000FFF76EFF8346FFF78BFF05F57A750746D5
:1019300006B32C492C4806F03AFB2046FEF744FD3E
:1019400002460B465846CDE904230297FEF73CFDBC
:10195000DDE90423CDE90001244806F028FB5946BF
:101960002046FEF7EFFF49460446FFF7B1FA28B3D9
:101970001F4804E01C48414606F019FB1D4806F0CC
:1019800016FB07F0FEF84FF47A72A0FB024302FB4D
:101990000133E40B44EA43442C1B002CBADD4FF422
:1019A000004640F2E73000214FF47A720023E4FB56
:1019B0000601FFF7BDFA07F07AF8ABE7514620467B
:1019C000FFF768FA08B10C48D9E70C48D7E700BF21
:1019D000B2990000C7990000299A00000000A040B9
:1019E0000000A0C0EF990000F3990000019A0000E8
:1019F000389A00002D9A0000469A0000549A000080
:101A0000014B1B68184700BFB8000020014B18604D
:101A1000704700BFB800002030B585B004460D46C1
:101A200010220021684607F0E4F802238DF8023006
:101A30002A46044B01932146684605F0BFF805B0DD
:101A400030BD00BF011A000080B505460E4617469E
:101A5000984604F001FB034607F090FADFF818906F
:101A6000044649F80030424630463946A84754F803
:101A7000090000F00DFC00BF080000002DE9F04750
:101A8000058B04462807904611D4022905F0070566
:101A900040F0CC80204606F097FA78B10138218BCF
:101AA000042811D8DFE800F0C2106D8595000129E7
:101AB0000CBF45F0100545F02005258388F31188FB
:101AC000BFF36F8FBDE8F08701F0070AAA4500F069
:101AD000A5800027B9463E46A368002B00F0BC80D5
:101AE00041F00801218388F31188BFF36F8FA1684B
:101AF000002900F0BA800D68002900F0B680D1F806
:101B00000480334652462046C047002D76D02B68CD
:101B100029461D46F0E701F007035A1F012A1BD88A
:101B2000002221F00701062B276889B2C4E90022B0
:101B300009D13B4603E0628B013262831B68002BB4
:101B4000F9D141F002012183204606F03DFA002838
:101B50007AD041F0200176E0042B0AD121F0070170
:101B600089B22183204606F02FFA10B141F02001FE
:101B70002183218B01F0070AAA454FD00027B946DF
:101B8000AAE7236921F0070141F00601062DD3F8E9
:101B9000009021832DD1B9F1000F3FD041F0080111
:101BA000218388F31188BFF36F8F3A492046C847D5
:101BB00029E021F00701236941F0040189B2042DD5
:101BC000D3F804902183E6D000273E464FF0040A64
:101BD00082E721F00701236941F0050189B2052D53
:101BE000D3F808902183D6D000273E464FF0050A4F
:101BF00072E700273E464FF0060A6DE72B4687E75F
:101C0000B9F1000FD1D1EFF31188202383F31288AB
:101C1000BFF36F8F238B23F008032383258BEA0602
:101C20002ED525F01003238305F007056669218B67
:101C3000002EBFF670AF00232768C4E9003321F0FF
:101C4000070141F001012183218B01F0070AAA4518
:101C50004FF000097FF440AF002F9CD041F0080105
:101C6000218388F31188BFF36F8F002FC8D03D68A0
:101C7000394633465246204606F0D2F92F46F4E75D
:101C8000AB067FF51BAF25F02003238305F0070586
:101C900000E700BF4D800000014B0360002070474B
:101CA0004496000008B5044806F081F9BDE80840F4
:101CB000024806F07CB900BF619A0000969A0000C5
:101CC000014804F037BD00BF4496000038B5044613
:101CD00018B90F4B0F485B6898476168B1F5683FCA
:101CE00010D0B1F5680F0DD00B4DA9420AD011F4F8
:101CF0006861206807D00146084806F0F0FD00231F
:101D00002360656038BD142206F073FFF9E700BF59
:101D100000010020C49A00002C5F5CA9F40A002096
:101D200008B520B34368B3F5683F10D101220368BA
:101D3000BFF35B8F53E8001F002903D143E8002065
:101D40000028F7D1BFF35B8F0DD1002008BD094AF1
:101D500093420AD000684FF0FF324FF0FF3303F098
:101D600079FD0028F1D00448F0E70448EEE76FF46D
:101D7000E040EBE72C5F5CA9E98FFFFFEA8FFFFFF4
:101D800008B5D8B14368B3F5683F10D100220368A5
:101D9000BFF35B8F53E8001F012903D143E8002004
:101DA0000028F7D1BFF35B8F0BD1002008BD074A95
:101DB000934208D0006803F0C5FDF6E76FF4E040F9
:101DC000F4E70348F2E70348F0E700BF2C5F5CA9A3
:101DD000E98FFFFFEA8FFFFF10B5044618B91D4BCE
:101DE0001D485B6898476368B3F5683F2FD0B3F52B
:101DF000680F2CD0194A934219D1236803BB1848A5
:101E00004FF0FF324FF0FF33214603F0F5FC08B9E5
:101E100023681BB90F4B13485B689847206814224E
:101E2000002106F0E6FE4FF46863636008E0B3F556
:101E3000683F0DD83A2B03D040F6BA629342DED108
:101E4000206806F096FD636843F03A03636010BDB6
:101E5000054AF3E700010020C49A00002C5F5CA94A
:101E6000F40A0020EA9A00003A00003A08B5064950
:101E700006484023142206F024FDBDE8084004492A
:101E8000044804F0C9BC00BFF4050020F40A002097
:101E90004C9600006096000030BFFFF7FDBF00BF0A
:101EA0002DE9F0410B4EDFF8308006EB0807CC1B24
:101EB000054632460949204606F08DFEA0194246E5
:101EC0000021083C06F095FE2C6707F10800BDE8EC
:101ED000F08100BF000000000400000058930000E3
:101EE000054B5A699B689A421FBF044A536843F0E6
:101EF00080535360704700BFB40C002000ED00E039
:101F000070B5264B15469A6A12F0100F9A6A14BFE4
:101F10001124102412F0080F9A6A18BF1224920795
:101F200006460AD5586B9A6A140634D519B19A6ACE
:101F300022F080029A62132401E06FF01500174B23
:101F40009A6A12F0010F9A6A18BF142412F0200F37
:101F50009A6A18BF1524D20602D49B6A9B070AD539
:101F60000E4B5B68190506D5314600F05BFA10B1DF
:101F700080F309880224094B9A6A920642BF5A6A82
:101F800022F400525A629A6A42F0FF029A620023D7
:101F90002B70204670BD6FF01500CCE700ED00E01F
:101FA000134B9A6A12F0007F9A6A14BF1E201D20FC
:101FB00012F0807F9A6A18BF1F2012F4002F9A6ACD
:101FC00018BF212012F4802F9A6A18BF222012F421
:101FD000003F9A6A18BF232012F4803F9A6A6FEA82
:101FE00002426FEA12429A6218BF2420704700BF73
:101FF00000ED00E010B5194B0246986A9C6A10F497
:10200000805F14BF1720162014F4006F9C6A18BF5D
:102010001820A40509D5986B986A000404D51AB154
:102020009A6A22F400429A6219200C4B9A6A12F4BE
:10203000806F9A6A18BF1A20D2050CD49B6A13F4D9
:10204000005F18BF1C20054A936A43F47F439362E4
:1020500000230B7010BD1B20F5E700BF00ED00E072
:10206000F0B5484B5B688BB00446C3F3080300250A
:1020700085F31188BFF36F8F02F07F40B0F17F4F7F
:1020800011D102F00C0008280DD010074CBF0C46EF
:1020900001250022033B8DF80720032B05D8DFE83C
:1020A00003F0246367602C46F3E700239DF80720C4
:1020B000CAB902AE04F1200720686168324603C243
:1020C0000834BC421646F7D1099A002D54D0C2F309
:1020D000080121B96FEA52226FEA4222099202A94D
:1020E000184606F04AF80BB0F0BD264BDA6A9107A5
:1020F000DBD4DA6A002AD8DBDA6A5200D5D55A690D
:10210000A16942F480725A61BFF34F8FBFF36F8FA2
:102110005A6931F8021C22F480725A61BFF34F8F62
:10212000BFF36F8F4DF6027291420AD09A6AD2B213
:102130004AB10DF1070201212046FFF7E1FE0346F7
:10214000B4E72368B2E79A6A12F47F4F05D00DF125
:1021500007010120FFF74EFFF1E79B6AB3F5803FCF
:10216000A3D3FFF71DFFEAE70DF107020021E3E724
:102170000DF107010020EDE722F4FF7222F00102C9
:10218000ACE700BF00ED00E0044B5A6942F01002DA
:102190005A615A6922F008025A61704700ED00E066
:1021A000EFF30880EFF3098101B57246FFF758FF9E
:1021B00001BD00BF002080F31488BFF36F8F0F486C
:1021C00080F3088801F0ACFD00200D490860BFF3E2
:1021D0004F8F00F02BF8202080F3118809484FF42E
:1021E0000461401880F30988EFF31480022108434A
:1021F00080F31488BFF36F8F00F0E4F8C031002043
:1022000094ED00E0002400200749D1F8902000233D
:10221000C2F307221846934200DB7047C1F898309A
:10222000C1F8A0000133F6E700ED00E008B572B692
:10223000002383F31388FFF7E7FF144B4FF0FF32BF
:10224000C3F88020C3F88420C3F88820C3F88C200A
:10225000C3F89020C3F89420C3F89820C3F89C20BA
:10226000C3F88021C3F88421C3F88821C3F88C21E6
:10227000C3F89021C3F89421C3F89821C3F89C2196
:1022800062B6BFF34F8FBFF36F8F08BD00E100E070
:10229000084B9B6883420BD1EFF3058343B1064B98
:1022A0005A6842F080525A605A6A22F400425A62D6
:1022B00003F0D8BEB40C002000ED00E014498A6899
:1022C0004FF030001044EFF3098C80E8F01F20201D
:1022D00080F31288BFF36F8F0E4F4FF000664A698C
:1022E0008A603E60106F0C4C2060506F0023536773
:1022F00080F3118804B5104600F0F8F8BDE80440FA
:1023000002F1300090E8F01F8CF30988704700005C
:10231000B40C002004ED00E0100B00201EF0040FB0
:102320000CBFEFF30880EFF30980816911F8021CFC
:102330000229FFD001B5724605F025FF01BD00BF9F
:1023400040B2002807DB044A4109012300F01F00C6
:10235000834042F82130704700E100E0054B42091C
:1023600000F01F0053F82220012303FA00F0104070
:10237000704700BF00E100E040B20028A8BF00F1B4
:10238000604001F10101B8BF064B4FEA4111ACBFFB
:1023900000F5614000F00F00C9B2B4BF195480F8D5
:1023A0000013704714ED00E0044B054A23F07F034F
:1023B0009360BFF34F8FBFF36F8F70470000000033
:1023C00000ED00E008B5FFF7EFFF074AD2F88830CC
:1023D00023F47003C2F8883003F050F903F064FF6F
:1023E00000F05AF803F08EF900ED00E042F8203CCE
:1023F000009B42F81C3C0A49019B42F8183C029B96
:1024000042F8143C21F001014FF0807342F8043C83
:1024100042F8081C0023203A02654367704700BF5A
:10242000491A0000094A0346906870B113F1160F6B
:10243000006E05D0A0F140029A4205D8834203D233
:10244000814228BF0020704700207047B40C002054
:1024500008B51546094A0A4B9060026F1A600E468D
:1024600000F044F82C4686F309880020054B984775
:102470002046002100220023034C2047B40C0020FA
:10248000100B0020A5810000491A0000014B10220A
:102490001A61704700ED00E0044800232021C218B3
:1024A0000133302B82F80013F9D1704700E100E0CE
:1024B00008B5EFF30583064A103B02EBC30152F85F
:1024C000330049688847BDE80840FFF709BD00BFF1
:1024D000B8900000024B034A0348012100F076B88F
:1024E000000004200000002070960000026E054BE2
:1024F000403A1A60044A4021C3E9011218460121FA
:1025000000F06EB8140B002000000B15084AC2F84A
:1025100098000B6823F01F03034343F01003C2F835
:102520009C308B6843F00103C2F8A030704700BFB5
:1025300000ED00E02DE9F043DFF8608085B00E4645
:102540001F4604464FF00009B14523DA6068D8B150
:102550003FB1411E08421BD11F2819D923681942D7
:1025600016D12368019305F040FEA368034303934B
:10257000D8F89050C5F30725D0B2013DA84207D83E
:1025800001A9FFF7C3FF421C09F101090C34DBE785
:102590006FF01502104605B0BDE8F08300ED00E0D5
:1025A000044B0522C3F89420BFF34F8FBFF36F8F06
:1025B000704700BF00ED00E0BFF35F8F024B0022C9
:1025C000C3F89420704700BF00ED00E010B5034C45
:1025D00001232278FFF7AEFF207010BDC30E00204C
:1025E00008B50B4A00231278FFF7A4FF10F1160F6D
:1025F00007D0084A0021D2F89030C3F3072398424D
:1026000000DB08BDC2F89800C2F8A0100130F2E764
:10261000C30E002000ED00E02DE9F043534B544C75
:10262000D3F890302568C3F307239D4285B000F2AC
:102630009A80FFF7C1FF00200C2685421AD14D4C2D
:102640004D4F25706846FFF727FBDFF82081DFF844
:102650002C9106460025AE4213D123784349002031
:10266000D1F89020C2F30722934276DBFFF798FF60
:10267000002042E0616806FB0011FFF747FF0130D0
:10268000DBE7009800EB05114FEA051CCB683B40E7
:10269000B3F5000F48D00AD8B3F5001F30D0B3F51A
:1026A000800F36D0B3F5801F10D00135D3E7B3F1DA
:1026B000807F42D0B3F1007FF7D150F80C308868AA
:1026C0004A6805F092FD40F4802009E050F80C3093
:1026D00088684A6805F089FD40F0885040F4302051
:1026E000CDE901230390D8F890302078C3F3072375
:1026F000013B98422AD96FF0150005B0BDE8F08380
:1027000050F80C3088684A6805F06FFD40EA09000F
:10271000E6E750F80C3088684A6805F066FD40F03E
:10272000C06040F40030DBE750F80C3088684A683D
:1027300005F05BFD40F08270D2E750F80C308868FD
:102740004A6805F052FD40F08870C9E701A9FFF71B
:10275000DDFE237801332370A7E7C1F89830C1F874
:10276000A00001337CE74FF0FF30C6E700ED00E04A
:102770007C960000C30E00200000F0FF000008114E
:1027800008B5024B1B689847002008BD200B0020AD
:10279000034B044A1860937843F002039370704728
:1027A000200B0020DC00002008B50649064821F077
:1027B0000701C1F1005202F5802205F09EFB0020C6
:1027C00008BD00BF07320020240B00200E4A012361
:1027D000C2F840354FF080424FF08051C2F8783552
:1027E000D1F83001082808D1D1F83411052904D8CE
:1027F0000648415C09B1C2F838364FF080430122E7
:10280000C3F880250020704700E00140269B0000AF
:1028100020B1034B800143F001031847704700BF0C
:102820006093000014280ED8084A12F8103053B1F3
:1028300002EB4002527832B108684343002093FB18
:10284000F2F30B6070476FF0150070472C9B00008F
:102850007FB50023CDE901330B7903F01F02C3F3E9
:102860000400072A8DF80D0003D96FF0150004B09D
:1028700070BD13F0200418BF8B7948798DF80B00D8
:1028800008BF23468DF80C300B780C2BEDD801A037
:1028900050F823F0CF280000C9280000F3280000DA
:1028A0006B280000F72800006B280000FB280000C0
:1028B0006B2800006B280000FF280000032900009F
:1028C0006B2800000729000001238DF806304B78A3
:1028D000032B1AD0042BC8D14B8844F20A00834240
:1028E00038D843F6FE70834213D8002BBDD10223A3
:1028F00040E00223E9E70323E7E70423E5E70523B4
:10290000E3E70623E1E70723DFE701238DF807303C
:10291000E2E7A3F57F533F3B0B2BA6D801A050F86D
:1029200023F000BFAF2900006B2800006B280000D7
:102930006B280000792900006B2800007329000033
:102940006B2800006B2800006B2800006B2800003B
:10295000EF28000044F21400834226D044F22800FD
:10296000834224D044F20F0083427FF47EAF0323DE
:1029700000E001238DF808300F4D012606FA02F31E
:1029800095F85000DBB2A4B18A790AB18DF80960DC
:1029900020EA030301A885F8503002F015FB074B2D
:1029A00098427FF462AF002061E70423E2E7052349
:1029B000E0E70343EEE700BF000000200000AD0B9E
:1029C00008B50D490D48002206F0DDF8002002F0A0
:1029D000B1FA0B4B98420CD1002201210720FFF7DE
:1029E000CBFC0848C36813B9043005F013FC002081
:1029F00008BD6FF00400FBE7A92B00006000002079
:102A00000000AD0B0000002010B50C4C94F83A30DB
:102A100023B1BDE810400A4802F06CBC02F0BAFBDA
:102A2000084B984208D06FF00403636204F114006D
:102A3000BDE8104005F0EEBB10BD00BF0000002057
:102A4000492A00000000AD0B2DE9F0410778002F66
:102A500040F08C804D4CE26A94F850C01CEA020FA2
:102A600025460AD14A4B0022C3F80025A36A6BBB56
:102A70004848BDE8F04105F0CDBBB0F808E0A66DD0
:102A80004FEA4E0E0123D0B218420AD094F8982093
:102A90000CEA030192B121B132460EEB06019142DC
:102AA00004D15B009BB26345EED9DBE732F9028BC0
:102AB000B8F1000FB8BF22F8027CF0E721B1B6F9F7
:102AC00000100029B8BF32800236EAE7236CB4F860
:102AD0004C2033B1304931489847012822D0022890
:102AE00039D0B4F84C30B4F848209A4233D9013385
:102AF000A4F84C3094F89830C3B9A36D94F85120E1
:102B000003EB4203A36594F85110A06D02F0FCFAA8
:102B1000234B98420AD06FF004031E48636205F00D
:102B200079FB03E094F89830002BECD0E36B1BB9F1
:102B3000BDE8F041FFF768BFBFF35B8F55E8003F8A
:102B40005A1E45E800210029F8D1BFF35B8F012B05
:102B5000EEDCBDE8F081E36B002B89D094F898306F
:102B6000002B85D10F4806F01AF881E7022F0AD111
:102B700002F010FB0A4B9842EBD004486FF00403BC
:102B80004362143075E7052FE3D171E700000020A0
:102B90000070004014000020280000207890000001
:102BA0000000AD0B60000020094BBFF35B8F53E8C2
:102BB000002F511C43E800100028F8D1BFF35B8FB1
:102BC0000AB9FFF721BF6FF00F025A62704700BFCA
:102BD000000000202DE9F0430E4685B04FF0FF3392
:102BE00073484FF0FF3202F031FF77687B1EFE2BF7
:102BF00008D96FF015046E4805F00CFB204605B0AF
:102C0000BDE8F08300252C4627FA05F3DA0706D540
:102C100002F0EAF9E840C307EBD50134E4B201352C
:102C2000082DF1D1002CE4D0337C083B062BE0D8F2
:102C300001A252F823F000BF732C0000F32B000018
:102C4000772C0000F32B0000552C0000F32B000024
:102C50007B2C00000221012C727C10D0002AC8D1EC
:102C6000544B002083F89800534B384602F0C2F9C9
:102C70002AE00021EFE70121EDE70321EBE7082A35
:102C8000B7D8DFE802F005050505050505050500CF
:102C90003368002BE4D0186801387F28E0D88DF81D
:102CA000082000228DF809201B68424A1B01013BC5
:102CB000ADF80A30012382F898308DF80C3002AA62
:102CC0003D4B384602F0C6F93C4B984291D13268F0
:102CD000630012B1928902FB0333F2689A4264D313
:102CE000344D85F8514095F89830B068A865214674
:102CF000A8462BB133689B89013313FB04F4A1B2BE
:102D000002F002FA2D4B984281467FF472AF3746AB
:102D10000FCF2B4C0FC43B68236000276F623368D2
:102D2000002B3FD00FCB261D86E80F00EB6BAE6269
:102D3000A5F84C70B3B3BFF35B8F58E8003F48E889
:102D40000072002AF9D1BFF35B8F95F89810E9B9AA
:102D5000E86B1C4E1C4A4FF40047E0FB0761002360
:102D60003046FEF7E5F80022CDE90001002304F12A
:102D7000280003F05DFC15484FF0FF324FF0FF33A1
:102D800002F064FE00B168626C6A34E702F002FA95
:102D90004845F0D06FF00403A4F124006B6205F005
:102DA00039FAE8E7FFF730FEE5E76FF00B0422E7BA
:102DB0000400002000000020492A00000000AD0BA4
:102DC000280000203F420F0040420F001400002066
:102DD000084B70B5C31A0D4607499B10044659436A
:102DE0000648402205F021FA2B4601462046BDE860
:102DF00070401847440B0020B76DDBB6F88F000019
:102E000073B50C4C0C4A4023041B00930D460B4633
:102E10000A49A41061430646094805F032FA011E2A
:102E200005DA30462B4602B0BDE87040184702B0C4
:102E300070BD00BF440B0020ED820000B76DDBB613
:102E4000F88F000010B5EFF31184202383F312886C
:102E5000BFF36F8F074A136823F00201DB0711608D
:102E600002D4012005F0DBFB84F31188BFF36F8FE0
:102E700010BD00BF940B0020002270B50121044654
:102E80001046FFF779FA0F4801F0D4F80E4B98423C
:102E900015D101F0DFF826690C49304605F0E3F85A
:102EA00000280BDB012535642469084904F11C0066
:102EB00005F0D9F8002801DBE564002070BD6FF053
:102EC0000400FBE7C92F00000000AD0B9C9600003A
:102ED0001FB500220123CDE90223094ACDF800D015
:102EE0006B46CDF804D005F0FAF9002805DB4FF465
:102EF00080420023684602F0A9FD05B05DF804FB9E
:102F00000B83000030B4104B0C2202FB003301464F
:102F10000020D3E90E529863EFF31180202484F34C
:102F20001288BFF36F8F1C6C04F0C00444F00204DD
:102F30001C6480F31188BFF36F8F1DB12B460348CB
:102F400030BC184730BC7047440B0020F88F00009D
:102F500010B4EFF31182202383F31288BFF36F8F35
:102F60001748016841F002040460C80707D482F3DF
:102F70001188BFF36F8F012010BC01F07DB84FF0B6
:102F80008041D1F80C04D1F80C14C907EFD5EFF348
:102F9000118083F31288BFF36F8F0A490B6C03F023
:102FA000C00343F002030B6480F31188BFF36F8FFB
:102FB00082F31188BFF36F8F002010BCFFF7A2BF10
:102FC000940B0020440B002010B1012804D070475E
:102FD000034B1B6C5B0701D1FFF794BF704700BF29
:102FE000440B00202DE9F0413849BFF35B8F0746C1
:102FF000012251E8003F41E800200028F9D1BFF349
:103000005B8F33B9324933484B60CB608A6005F03F
:103010003DF87B1E012B2BD8012F07D14FF08043A9
:10302000D3F81C3403F00303012B21D005F0A8FCD6
:103030000546F8B9284B1B78E3B14FF080430222D4
:10304000C3F808230646DFF894804FF08044D4F894
:103050001824D4F81834D20315D503F00303012B38
:1030600001D0012F0FD155B386F31188BFF36F8FB5
:10307000BDE8F081EFF31186202383F31288BFF3BC
:103080006F8F0125DFE7ADB1304605F09FF8D4F82A
:103090001835002BDBD1D4F80421002AD7D0C4F88E
:1030A0000431D4F804310123C4F81835C8F880314C
:1030B000A360CCE70021212005F0F9FCE7E74FF001
:1030C00080430222C3F80423D2E700BF400B002054
:1030D000300B0020600B0020C60E002000E100E055
:1030E00008B5074805F0A2FB38B10648FFF750FBCA
:1030F0000448FEF78BFC002008BD6FF01200FBE7D0
:1031000058900000093100000A2838B5074D0446E0
:1031100004D1AB680D215B6828469847AB6803482B
:103120005B68E1B29847204638BD00BF5890000068
:10313000F0B516464268107B01F01F0444EA4014C3
:10314000106987B0002872D0B6F5001F02F1100593
:1031500006D12146284605F0E2FA002007B0F0BD6E
:1031600001A80027B6F5800F0197476039D1B3F168
:10317000007F14BF052304238DF804300023CDE91C
:1031800004030393936823FA01F111F001010DF197
:1031900003073ED1B6F1A07F3BD104F01F036209C3
:1031A00003F5E07328D0012A47D1254A52F823308D
:1031B000DB072ED43A462146284601F047FA214B38
:1031C00098421CD0029703AA2146284601F0FEF837
:1031D0001D4B98422ED101222146284601F08EFA3D
:1031E000BBE7B3F1C06F05D0B3F1007F14BF01237B
:1031F0000223C1E70323BFE74FF0A042D6E73946D9
:10320000284601F073FA104B9842DBD06FF00B00A8
:10321000A4E73A462146284601F018FA0A4B98429C
:10322000D1D19DF80310284601F058FACBE76FF092
:10323000850093E76FF0150090E751F82330FFDE2B
:10324000000300500400AD0B0000AD0B420970B547
:10325000034602D0012A17D070BD0D4E3269516865
:103260000029F9D003F01F0301250C689D400029B7
:10327000F2D08A682A4002D04B68304698472CB179
:10328000236821461C46F2E7024EE7E72346F8E7AB
:10329000389000001890000038B545682B69B3B12C
:1032A0001035284601F010FA044680B90146284638
:1032B00001F0E6F9084B98420BD10849224628460E
:1032C00001F0BEF9224605210620FFF755F800203F
:1032D00038BD6FF00400FBE70000AD0B4D3200007D
:1032E0002DE9F043466840F20635D006337B87B0BF
:1032F00002EA050554BFC2F34010032001F01F0786
:10330000B5F5837F144647EA43178DF8030044D090
:103310000FD8062D18D007D8B5B1022D3FD06FF0C9
:10332000150007B0BDE8F083B5F5807FF7D1012522
:103330000AE040F20222954233D0B5F5407F32D008
:10334000B5F5007FEBD1022522032ED5726801234B
:103350008B40C2F80835326992BB07F01F037F0922
:103360002BD0012F79D13F4A02EB830284F48033C2
:10337000D2F80017C3F30043C4F3404444EA4304C3
:1033800021F4E16144EA800421F0070144EA0523C5
:103390000B43C2F800370020C3E70725D4E7042514
:1033A000D2E70525D0E70325CEE7630341BF01231C
:1033B00072688B40C2F80C35CDE74FF0A042D3E7DE
:1033C00010360DF102023946304601F03FF914F48F
:1033D000403F80460CD13946304605F09EF9224BDD
:1033E0009845D8D19DF80210304601F077F9D2E720
:1033F00001AB4FF0000903AA39463046CDE9043944
:10340000CDE90199CDF80C9000F0E0FF164B984201
:1034100085D114F4003315D09DF803308DF80E30AB
:1034200084F48034C4F300444B4603AA3946304642
:103430008DF80C508DF80D4001F084F80A4B98423D
:10344000CDD06CE7CDE9043303AA0DF1030339466F
:103450003046039300F0BAFFF0E703F5E07352F84B
:103460002330FFDE000300500000AD0B036803F0C3
:103470001F025B09026004D0012B034818BF002023
:1034800070474FF0A0407047000300502DE9F04F07
:10349000DFF89491DFF894A185B01546834600EBE0
:1034A000810140F2FF18594503D1002005B0BDE865
:1034B000F08FDBF800305E04C3F3C322C3F30804CB
:1034C00000F1AC801B0E19F80270444508BF4FF0A4
:1034D000FF34222B00F2A580DFE803F012191F222F
:1034E000252B22A3A3A3A33B68A3A3A3A3A3A3A3C6
:1034F000A3A36B818487A3A3A38A9194979A9D0029
:10350000C5F80C45601C5ED10BF1040BCBE7C5F888
:103510001445621CF8D000265FE0C5F80845F1E7C5
:10352000C5F81045F5E7631CC5F80845ECD0002642
:1035300004E0661CC5F80C45E6D0012603A80394F8
:10354000FFF794FF039B012202FA03F3C0F80C3546
:1035500008E0C5F80845002FDBD1631CD4D0002655
:1035600032460627DBF80030019303F400400028C0
:1035700018BF002203A8009218BF01260394FFF78A
:1035800075FF039C019B009A00EB8400C3F3412C60
:10359000D0F800473B0243EA8C03134304EA0A04D1
:1035A000234343EA4603C0F80037ADE7C5F80C45AE
:1035B000D1E7C5F86045601CDBF80030A4D0C3F348
:1035C0000043002BB9D003A80394FFF74FFF039BE0
:1035D000012606FA03F3C0F808353246C2E7C5F8FB
:1035E0006445E8E7C5F86845E5E7C5F86C45E2E7F6
:1035F000C5F82445621C87D000220126B2E7C5F831
:1036000028457FE7C5F83045F4E7C5F83445F1E7CC
:10361000C5F83845EEE7C5F83C4573E76FF015008F
:1036200044E76FF0850041E78E9B0000F0F8FCFF57
:10363000036803F01F025B09026004D0012B0348FA
:1036400018BF002070474FF0A040704700030050A3
:1036500073B50446002201211C20FEF78DFE606830
:103660002369244A00F1080101F018FA224B98421C
:103670003CD16568AE6B01AA0021304604F09DFE86
:10368000002805DB019B326819791868FFF7FEFEF8
:10369000002631462B6801F5AC7253F82230002B1E
:1036A0000EDB01A80193FFF7C3FF019AD0F80435A0
:1036B000D34013F001031CBF01238B403343DEB220
:1036C00001310429E6D1002301206268916A00FAE1
:1036D00003F232420CBF01220022D20321F8132050
:1036E0000133042BF1D1002002B070BD6FF00F0048
:1036F000FAE700BFE18300000000AD0B2DE9F041C7
:10370000044647680D4605F03BF94FF0200888B99C
:10371000264B1B7873B16426606804F01AFFF0B979
:10372000012004F06EFF013EF6D10021212005F0BA
:10373000BEF9F0E7EFF31186314688F31288BFF344
:103740006F8F606804F005FFA8B986F31188BFF396
:103750006F8FEFE786F31188BFF36F8FE5E7EFF325
:103760001186314688F31288BFF36F8F606804F0CA
:10377000F0FE0028EED0BB691D706368BA691B6853
:103780000020C3F844250122C3F84825C3F82001CE
:10379000D3F82041C3F85801D3F858019A6081F357
:1037A0001188BFF36F8FBDE8F08100BFC60E002007
:1037B000F8B50022054601210220FEF7DDFD0220BA
:1037C000FEF7BEFD6C680121E06804F0F3FE6B6853
:1037D0001A682369C2F82435617D237D0B43A17DDE
:1037E0000B43C2F86C356E68D6E9004313F0010351
:1037F00042D02F6907F1080004F00FFF2D4B9842CB
:1038000054D1387A04F10C0204F5907104F0FBFEF7
:10381000387A012707FA00F000F0A4FB0823C4F867
:103820000035B369C4F844350023C4F84835A760AF
:10383000D4F85831002BFBD00026C4F800656B6823
:103840003146D86804F0B6FE6D6831462C68E868E9
:1038500004F0B0FE0823C4F800352A7A52B9EB69A7
:10386000C4F834350123C4F83835C4F81021D4F82D
:10387000102123600020F8BD0822C4F80025B26999
:10388000C4F84425C4F848350123A360D4F8203196
:10389000002BFBD00023C4F82031D4F820310123C1
:1038A000E3604FF48073C4F80433C1E76FF00400A1
:1038B000E1E700BF0000AD0B70B5012383400E4A65
:1038C000BFF35B8FDC4352E8001F01EA040542E8C6
:1038D0000056002EF7D1BFF35B8F4FF48032824049
:1038E0000648C0F80823BFF35F8FBFF36F8F0B420A
:1038F00014BF0120002070BDC80B00200010014043
:1039000070B40E49D1E90034D01AC31844F1000450
:1039100022F07F46C1E90034A6F50013B3F5400F4D
:1039200009D2074B1B681A0A1B069C19054B42F16A
:103930000005C3E9004570BC02F092BDE803002019
:10394000CC0B0020F003002011B3BFF35B8F0123E9
:10395000104A834052E800CF4CEA030C42E800C111
:103960000029F7D1BFF35B8F0B4A4FF480338340BC
:10397000C2F80433094BBFF35B8F1B68BFF35B8F47
:10398000C340DB0742BF064B4FF40032C3F80021AF
:10399000704700BFC80B002000100140C40B00207E
:1039A00000E100E00D4B1868010A0006BFF35F8FCD
:1039B0000B4BD3F80435181841F10001B3F5801F03
:1039C0000AD2084BD3E90023904271EB030303D2E0
:1039D00010F1807041F10001704700BFCC0B002056
:1039E00000100140F00300202DE9F04F85B016468D
:1039F0001F469DF840A00446FFF75EFF0190FFF7C9
:103A0000D1FFB04271EB070354D23E4B301A67EB43
:103A10000101984271F100014FD23B4B03EB0413BB
:103A2000D3E902239F4208BF96425ED037494FF444
:103A3000803804F1500508FA04F8AD00C1F8488355
:103A40002046ADB204F0C5FD26F07F4B05F1804560
:103A500004F5A87305F58835DC464FF00309029399
:103A6000029A2CF07F4341F82230C1F84483D1F808
:103A70000435274A6FF00200C01A604420F07F40EE
:103A8000904232D9286868B1D1F804350393A3EB8A
:103A90000B0020F07F40B0F5000F26D9204604F03F
:103AA00098FD039BBAF1000F07D109EB030C09F154
:103AB0000109D5E7BAF1000F09D06FF015052046CE
:103AC0000199FFF741FF284605B0BDE8F08F0123BB
:103AD000104ABFF35B8FA34052E8000F184342E83F
:103AE00000010029F8D1BFF35B8F07490E9823012D
:103AF00001EB0412C8500F9B5360C2E90267002516
:103B0000DDE700BF01008000D80300200010014065
:103B1000FDFF7F00C40B00207FB51C4C1C4BC4F87C
:103B20000833C4F848331B4B00254FF0FF304FF0EB
:103B3000FF31C4F80855C3E902014FF48033C4F8DB
:103B40000433154B02264FF400320121C4F80463FC
:103B50001120C3F880212A46FEF70EFC1120FEF743
:103B6000EFFB0E4A0123A360236013600C4B0D4A48
:103B70000093CDE9015500232846FFF735FF304675
:103B8000FFF730FA284604B070BD00BF00100140B6
:103B900003000F00D803002000E100E0C80B002064
:103BA00001390000FFFF7F002DE9F7432F4CD4F8C7
:103BB000043399070BD5D4F8043143B12C4A0023C0
:103BC000C4F80431D4F80431136801331360D4F815
:103BD0000433DA0329D5BFF35B8F264B53E8002F5C
:103BE00022F0010143E800100028F7D1BFF35B8FFA
:103BF000D30702D4D4F84031BBB10025C4F84051FA
:103C0000D4F84031FFF7CEFEEFF31182202383F387
:103C10001288BFF36F8F184BD3E90267B042B941E6
:103C200006D282F31188BFF36F8F03B0BDE8F08333
:103C30004FF0FF384FF0FF39C3E90289D3E9001094
:103C40001D604FF48033C4F84833C4F84051D4F8B1
:103C5000403182F31188BFF36F8F0029E5D00090C7
:103C600032463B4628468847DFE700BF0010014048
:103C7000CC0B0020C40B0020D803002030B5431C1F
:103C8000124C85B005D08442A8BF0446012CB8BFB1
:103C90000124FFF787FE0E4B0C4DD3E90013401AA9
:103CA000B0F5000F10D22218AA4228BF2A46521897
:103CB0004FF0000007490091CDE9010043F10003F6
:103CC000FFF792FE05B030BD2A46F0E7FFFF7F0008
:103CD000E80300200139000008B5FFF763FE024B3E
:103CE0001B68C01A08BD00BFE80300204FF08053D6
:103CF000D3F83021082A06D1D3F83431052B02D865
:103D0000024AD05C70470020704700BFB79B00009C
:103D1000024AD2F80034002BFBD0704700E001408B
:103D200010B54FF08053D3F83021082A4ED14FF010
:103D300080420021C2F80C11C2F81011C2F83815E7
:103D400002F54042D3F80414C2F82015D3F8081441
:103D5000C2F82415D3F80C14C2F82815D3F810149F
:103D6000C2F82C15D3F81414C2F83015D3F818146F
:103D7000C2F83415D3F81C14C2F84015D3F8201437
:103D8000C2F84415D3F82414C2F84815D3F82814FF
:103D9000C2F84C15D3F82C14C2F85015D3F83014CF
:103DA000C2F85415D3F83414C2F86015D3F8381497
:103DB000C2F86415D3F83C14C2F86815D3F840145F
:103DC000C2F86C15D3F84434C2F87035FFF78EFF93
:103DD00018B13A4B3A4AC3F88C26FFF787FF18B15F
:103DE000384BFB22C3F81825FFF780FF70B14FF066
:103DF00080414FF08053D1F8E42ED3F8583222F0AE
:103E00000F0203F00F031343C1F8E43EFFF76EFF08
:103E100020B12D4B4FF40072C3F840264FF0805371
:103E2000D3F83031082B1AD14FF08043D3F8002457
:103E3000D20744BF6FF00102C3F800244FF0805353
:103E4000D3F83431052B02D8204AD35C3BB14FF074
:103E50001023D3F808224FF08043C3F858254FF0C1
:103E60001023D3F80022002A03DBD3F80432002BFE
:103E700022DA174901234FF01020C1F8043512242B
:103E8000FFF746FFC0F80042FFF742FFC0F80442C8
:103E9000FFF73EFF0023C1F80435FFF739FFBFF3FA
:103EA0004F8F0C490C4BCA6802F4E0621343CB609D
:103EB000BFF34F8F00BFFDE710BD00BF00500040B3
:103EC0004881030000F0004000900240B19B0000D8
:103ED00000E0014000ED00E00400FA0530B50468A0
:103EE000CCB1BFF35B8FB4FA84F3C3F11F03DBB231
:103EF00001229A4024EA020250E8005FA54204D160
:103F000040E8002CBCF1000FF6D1BFF35B8FE6D187
:103F100002480B7030BD0248FCE700BF0000AD0B4B
:103F20000200AD0B10B50368CB40DB0714D40123AE
:103F30008B400268BFF35B8F43EA020150E8004FF9
:103F4000944204D140E8001CBCF1000FF6D1BFF34D
:103F50005B8FEED1014810BD0148FCE70000AD0BBE
:103F60000400AD0B014BC3F80405704700F001409D
:103F7000F7B50546F8B101281BD104224FF4807330
:103F800001464FF0804003440244C0F80813002665
:103F9000012111601E608D421B688DF8071008BF5B
:103FA0000DF1070642F210744FF0804745B1012D24
:103FB00029D003B0F0BD0C224FF482730221E0E758
:103FC000D7F8183403F4803366B9002BF1D0012000
:103FD00004F017FB013CF3D1EBE704F012FB013CCA
:103FE000E4D1E6E7D7F8182402F003023260002B90
:103FF000DFD09DF807000128EFD0012DD9D10C4B5F
:1040000000225A71D5E7D7F80C3403F480333EB957
:10401000002BF4D0012004F0F4FA013CF3D1C8E7FE
:10402000D7F80C2402F001023270002BE1D1E6E750
:10403000D00B0020044B1A7922B9012218609A8013
:104040000248704702487047D00B00200000AD0BBB
:104050000C00AD0B08B5074B1B682BB10020FEF719
:104060007DF908B9FEF76CF94FF080430022C3F8E0
:10407000182508BDD00B002010B510B1012843D081
:1040800010BD4FF08043D3F81814D3F81824C80398
:1040900021D502F00303012B04D013B10020FFF758
:1040A00067FF00234FF080420220C2F81835082233
:1040B0004FF4827303F180430021196002F18042C2
:1040C0001C6801241460154A12680AB34FF080433B
:1040D000C3F80403D4E7D3F81424D107E1D5D3F807
:1040E0001C249207DAD40D4A12681AB10222C3F8CE
:1040F0000423C5E7D3F80421002AFBD00022C3F82B
:104100000421D3F80431BBE700224FF48073D1E7D8
:104110001A68002AFCD019601B68B1E7D00B002098
:10412000F8B54FF080431C4ED3F804430125002717
:1041300004B9F8BDB4FA84F0C0F11F00830003F5A0
:1041400080739BB203F1804305FA00F2196892B2C2
:1041500024EA02040029EBD01F601B684FF0804363
:10416000012AC3F8082305D0022A08D03368C0B258
:104170009847DDE77379002BDAD17271F6E7D3F84F
:104180001814D3F818148907F0D1C3F81855C3F8D8
:1041900004239D60CCE700BFD00B0020036803F030
:1041A0001F025B09026004D0012B034818BF0020E6
:1041B00070474FF0A040704700030050034A430986
:1041C00000F01F00D35C1844C0B27047BD9B0000D4
:1041D00070B50546FFF7F2FF0C4C08300E4634F878
:1041E0001030DA0508D5C3F3432304EBC302284695
:1041F00054F8333052689847A3682BB1E2683146CF
:104200002846BDE87040184770BD00BFD80B00209D
:1042100008B5FFF7D3FF034B083033F81000400B0D
:1042200008BD00BFD80B002008B5FFF7C7FF034B40
:10423000083033F81000C0F3400008BDD80B002050
:1042400008B5FFF7BBFF034B083033F81000C0F38D
:10425000401008BDD80B0020034611F0010010B536
:10426000CCB20DD1A207C4F3400012D5094AD2F84E
:1042700020055860C2F82005003818BF012008E06A
:104280004FF0A041D1F820251A60C1F82025002A5E
:10429000E8D010BD0003005010B5FFF78FFF124AA1
:1042A000083032F81030D9051CD5C3F3432123F46C
:1042B000F85322F8103002F10E04002034F8023FC7
:1042C00013F4807F03D0C3F3432399420AD0013013
:1042D0003028F3D1002342F831300448BDE81040C3
:1042E000FFF720BE10BD00BFD80B0020500C0020EF
:1042F00001F18051F0B501F5C2510446114A002088
:104300008900012506468A420BD10F4BD3F87C2148
:1043100032B10022C3F87C21D3F87C3140F0004058
:10432000F0BD02F14043A3F5C2439B0805FA03F335
:104330001C4204D0176817B116601768184304327E
:10434000E1E700BF0061004000600040F7B50646AD
:104350000846FFF733FF194F00F108050C4637F800
:104360001530DB0727D5304604F0B3F92046FFF7B8
:1043700067FF40B12046FFF74BFF316800F5A270A0
:10438000002341F820302046FFF786FF002301A8D4
:1043900027F815300194FFF701FF019B00EB830024
:1043A000074BD0F80027134043F00203C0F8003752
:1043B000044803B0F0BD0448FBE700BFD80B002061
:1043C000F0F8FCFF0000AD0B0400AD0B2DE9FF4140
:1043D000164680460846FFF7F1FE0C463168054652
:1043E00009B32046FFF720FF18B12046FFF728FF4A
:1043F00010BB0023CDE900338DF80E308DF80F305F
:104400000DF10F020B4620460DF10E0104F009F9E3
:10441000484A05F1080132F8113023F0020343F055
:10442000010322F8113073685BB320461F78596886
:10443000FFF7FAFE10B1C9B13F4825E03D4A05F14A
:10444000080C32F81C3023F02003DB04DB0C22F8CC
:104450001C3059B1032FEFD87168D8F800004968B3
:104460000978A7B901F5A27140F82170314A05F128
:10447000080132F8113023F01C0343EA870322F8C5
:104480001130B3686BBB2D4804B0BDE8F08100EB80
:10449000810043EA4133D0F810E52EF0030EC0F856
:1044A00010E5D8F8000000EB810E43F02003DEF8A1
:1044B000100522F81C3020F44F3020F44070CEF864
:1044C00010052002DEF8108500F47C5040EA074019
:1044D00040EA0800CEF8100502EB4100A0F87C404D
:1044E000C4E7D3E900672046FFF7D6FE002ECAD006
:1044F000104CD4E90023964203D19F4201D10022FF
:1045000009E00F480DF10F01FFF7E8FC0B4B984253
:10451000BAD19DF80F2044F8326004EBC20308358D
:104520005F6034F8153043EA422343F4807324F883
:104530001530A8E7D80B00200400AD0B0000AD0B30
:10454000500C00202DE9F0430C4685B080462046F3
:1045500011461E46FFF732FE054629B32046FFF7F7
:1045600063FE18B92046FFF76BFE18BB314F05F10B
:10457000080937F8193013F01C0F02D04B78012BC3
:1045800018D001238DF80F300023CDE900134A1C09
:104590008B1C20460DF10F0104F043F837F8193059
:1045A00043F0030327F81930002E41D02046FFF7CF
:1045B0003BFE18B9204805B0BDE8F08396F800C06E
:1045C000D8F800301B4F0CF5A272002143F82210DE
:1045D00005F1080237F8121021F02001C904C90CB6
:1045E00027F8121075781DB3D8F80000B67800EBE4
:1045F0008C002D04D0F8103523F4991323F4F853CC
:10460000C0F81035230203F47C5305F44035360519
:10461000D0F810E52B4306F4801641EA4C313343C1
:1046200041F0200143EA0E0327F81210C0F81035BC
:104630000248C0E7D80B00200400AD0B0000AD0B12
:10464000014BC3E902127047D80B002010B5084691
:104650001446FFF7F5FD50B10846FFF7AFFD054BD7
:10466000083033F8103004485B0B237010BD03484A
:10467000FCE700BFD80B00200000AD0B0400AD0B21
:1046800070B50E4C94F88C500646A5B960222946A8
:1046900004F1100004F0ADFA3068C0F87C51D0F895
:1046A0007C3140F30730FDF74BFE0123044884F8CA
:1046B0008C30A36770BD0348FCE700BFD80B002017
:1046C0000000AD0B0C00AD0B034B93F88C000038D1
:1046D00018BF0120704700BFD80B00200079024BA3
:1046E00003EB8000FFF71EBCEC0000200079024BBA
:1046F00003EB8000FFF7F2BBEC000020F7B50546A6
:1047000008461646FFF79CFD0C462968F0B1204686
:10471000FFF78AFD0746C8B92046FFF779FD04B2C6
:10472000A40004F580728F508A5829682144D1F87A
:10473000102542F00102C1F810252EB1296801228E
:1047400002FA00F3C1F8043303B0F0BDD1F804332A
:10475000002BA4BF4FF00043C1F804332046FFF7FD
:104760002DFD0F4B083033F81030C3F38203042BB8
:1047700012D0052B12D001A80194FFF70FFD019A6A
:10478000D0F81035D34003F00103991C204603B044
:10479000BDE8F04003F08EBF0321F7E70221F5E703
:1047A000D80B00202DE9F04F654BD3F80403C0B2BD
:1047B00087B0082140F00040FFF79AFD051E2BDA74
:1047C0000023032104A8CDE90433FFF745FDDFF8FA
:1047D00074A10DF110084FF000094FF0010B1AF809
:1047E000013B5949DA0803F007038A5C22FA03F314
:1047F000DA071CD408F10408B9F1000F14D0002125
:104800004FF00040FFF774FD032104A8FFF724FDDB
:104810000028DCD125F00045494E4C4F0124002DE5
:1048200078D107B0BDE8F08F4FF00109D7E7484BCA
:104830004B440093D8F800100029DBD0009B91FA7C
:10484000A1F11C78B1FA81F141EA44142046FFF746
:10485000B5FC3E4B0394083033F81070C80801F0E3
:10486000070118F800200BFA01F122EA0102BB0847
:1048700008F8002003A80193FFF790FC039A019B1E
:1048800002F5E072C7F3820650F822205B07374634
:10489000C2F3014223D520463946D6B2FFF798FC31
:1048A00003A80394FFF77AFC039B03F5E07350F829
:1048B0002330C3F301439E4207D10021204603F079
:1048C000F9FE3146204603F0F5FE03A80394FFF7F6
:1048D00065FC039B0BFA03F3C0F82035AAE7022A14
:1048E0000CD10321204603F0E5FE06F00503012B61
:1048F000EBD139462046FFF76BFCE6E70221204664
:10490000019203F0D7FE032EF3D0019A032ADCD1E3
:10491000022EEDE795FAA5F3B3FA83F304FA03F256
:1049200025EA020503F5A27207EB430356F82210AD
:10493000B3F87C00C1F30141FFF74AFC6FE700BF09
:1049400000600040CD9B000088970000D80B00203D
:10495000CD9B000001460148FFF7C0BAF0000020DF
:10496000036803F01F025B09026004D0012B0348B7
:1049700018BF002070474FF0A04070470003005060
:1049800070B505790A4C14236B43E618E35833B924
:104990000068022103F0FAFE08B1012333721423E8
:1049A00003FB0544207A023818BF012070BD00BF08
:1049B000680C00202DE9F3470B7F04466BBBDFF842
:1049C000D8900D1F01F1100601F10C08012755F8D0
:1049D00004AFBAF1FF3F1CD03378CDF804A001A892
:1049E000002B50D0FFF7BCFF019B07FA03F3C0F880
:1049F000083501A8CDF804A0FFF7B2FF019B00EB3A
:104A00008300D0F8003703EA090343F00303C0F83A
:104A10000037A84506F10106D9D191F81DC00D8BCC
:104A20004F7D8E7D8A7EC87E2368BCF1000F0BD13E
:104A3000D1E9008ED1E902C1C3F86085C3F864E50D
:104A4000C3F868C5C3F86C1542EA0022C3F80C75B8
:104A5000C3F80465C3F80855C3F81025206800237F
:104A6000C0F81031D0F81021C0F80831D0F8082172
:104A7000C0F80C31D0F80C3140F3073002B0BDE87B
:104A8000F047FDF75DBCFFF76BFF019B07FA03F3EF
:104A9000C0F80C35ADE700BFF0F8FCFF2DE9F041A0
:104AA00090F804800D4C142606FB08F6A71997F819
:104AB00008C0BCF1000F0ED1A2517B6019B10B7F71
:104AC0003B74FFF777FF142303FB084404480123DA
:104AD0002372BDE8F0810348FBE700BF680C0020AB
:104AE0000000AD0B0C00AD0B70B40C4601792668CC
:104AF00015461A461A4B01EB810103EB810103684D
:104B0000C3F82065A688C3F82465A668C3F828659D
:104B1000E668C3F82C6503682668C3F84065A68874
:104B2000C3F84465A668C3F84865E468C3F84C4513
:104B3000046805F0010303EB5505C4F81455D407C8
:104B40000CD412F0020403D0002B14BF0824042458
:104B50000568C5F8004270BC03F0E3BD1024F7E718
:104B6000680C002038B5036805790022C3F80022DC
:104B70000368012204465A6071B12046FFF700FF26
:104B80000028FAD023680022C3F80025054B142220
:104B900002FB053301221A722046BDE83840FFF7B8
:104BA000EFBE00BF680C002010B5B2211A4803F018
:104BB000EDFDC106044608D5184BDA68520704D546
:104BC0001A6812B1596801209047A00608D5134B06
:104BD000DA68110704D51A6812B1596802209047A3
:104BE000220608D50D4BD86810F0100003D11A68C2
:104BF0000AB159689047A3070DD5074B0022C3F8A7
:104C00000025064B01221A721A6822B1BDE8104035
:104C100059680320104710BD00C00140680C0020F7
:104C200030B50A4B082493F830500122002310427B
:104C300003D0154208D00133DBB2013C4FEA4202F7
:104C4000F5D103480B7030BD0248FCE77C0C002016
:104C50000000AD0B0400AD0B054B93F82E00431E76
:104C6000012B03D9043818BF01207047002070477A
:104C70007C0C002010B5164A16490020C2F8000529
:104C800091F82F40D2F8043381F82E400C6823F0BD
:104C900033030CB143F02303C2F81C01D2F81C41CA
:104CA000C2F81801D2F81841C2F80801D2F8082158
:104CB00091F83320D00791F8342048BF43F08003A7
:104CC000D207034A48BF43F04003C2F8003310BD87
:104CD000007000407C0C002070B50D4A002392F853
:104CE000301001251E4618B90BB182F8301070BD86
:104CF00090FAA0F3B3FA83F305FA03F40C3302EB52
:104D0000430320EA0400DE8021EA04010123EAE7EC
:104D10007C0C002073B50023044601AA0E464FF414
:104D20008071019303F05EFD4FF48A71204603F019
:104D300059FD4FF482710546204603F053FD20B122
:104D40001EB115B1144BD3F8343601AA4FF4847157
:104D5000204603F047FD4FF48671204603F042FDE4
:104D60004FF48871204603F03DFD0C4B234083B186
:104D70004FF48E75294601AA204603F033FD291F02
:104D8000083589B22046ADB203F02CFDB5F5AE7FF3
:104D9000F0D1019802B070BD00700040C0FF3F002C
:104DA0002DE9F04F93B09A460DF1080C0AAF1C9D07
:104DB0003F4B3E46E046002403EB041E0134DEF880
:104DC000189548F8049B082CDEF81CE546F804EB1F
:104DD000F2D1D3F8F065D3F8404601944FF0010EBC
:104DE0000024D3F84496D3F84886C3F8FC4FC3F8A0
:104DF000FCEF2F4B5CF804BB03EB041E0134CEF830
:104E000018B557F804BBCEF81CB5082CF2D1019C9C
:104E1000C3F84046F6B2274CC3F84496C3F8488618
:104E2000C3F8F065002684F8336084F83460A66027
:104E30002661256084F83100A683C3F8F015C3F815
:104E4000F4252DB32322C3F800231A4D184E002158
:104E5000012707FA01F303404FEA01121BD102F1C7
:104E6000804404F5E044C4F81035C4F814353244E5
:104E70000131D2F8184524F0807444EA036308290C
:104E8000C2F8183505F10205E3D113B0BDE8F08F83
:104E9000C3F80053D9E702F1804303F5E043EC7F08
:104EA00095F81EC0C3F810C5C3F814455346DEE795
:104EB000007000407C0C002010B5C3788278417AE5
:104EC0001B03120202F4E06203F4805313430278DE
:104ED00002F0030213430279120402F4E0221343A6
:104EE0004278120102F0300213438279120602F076
:104EF000807213434279120502F4801213430A01AF
:104F000002F1804202F5E042C2F81835084AC4793D
:104F100001F10C0302EB43039C71007AD871012369
:104F200003FA01F192F830300B4382F8303010BDB3
:104F30007C0C002070B51F4D95F82E40002C37D109
:104F40000126FF2085F82E60FFF7C6FE1A4B1B498D
:104F5000C3F80041D3F80021C3F80441D3F8042179
:104F6000C3F81041D3F81021C3F81441D3F8143119
:104F70001C239A0806FA02F212F0330F1FBF03F146
:104F8000804202F5E242146012681A1F920806FA83
:104F900002F212F0330F1CBF5C505A5808335C2BDE
:104FA000E7D10720FDF7CCF9002305482B6070BD41
:104FB0000448FCE77C0C002000700040FC700040BE
:104FC0000000AD0B0C00AD0B08B50246FFF744FE28
:104FD00020B91046FFF770FF014808BD0148FCE703
:104FE0000000AD0B0B00AD0B014B93F83000704788
:104FF0007C0C00202DE9FF4105460F4616469846D9
:10500000FFF72AFEF0B90DF10F012846FFF708FE61
:105010000D4B9842044611D1331E18BF012332466E
:10502000CDF8008039462846FFF7BAFE074B9DF8B9
:105030000F2083F83220022283F82E20204604B06D
:10504000BDE8F081024CF9E70000AD0B7C0C0020BC
:105050000B00AD0B2DE9FF4707469946FFF7FCFD16
:105060008A461446064600283FD10DF10F01384606
:10507000FFF7D6FD1F4B9842054627D163889DF860
:105080000F803BB3B8F1010F31D8B9F1000F2ED02A
:105090002278637812B1B3FA83F67609CDF80090DE
:1050A00051463846FFF77CFE6388134A0BB143F440
:1050B0008053C2F8F835114B83F83280227983F897
:1050C0003520042283F8366083F82E20284604B069
:1050D000BDE8F08722786378002ADFD0002BDDD18D
:1050E000B8F1010F03D80126D8E7054DEEE7054DCD
:1050F000ECE700BF0000AD0B007000407C0C00200E
:105100000B00AD0B0300AD0B10B51B4B1A696ABB4E
:1051100000F06042B2F1005F2AD193F83220B1FB77
:10512000F2F402FB14142CBB0CB2002C22DD93F819
:105130002E40052C05D8032C0AD8022C0DD00F4880
:1051400010BD062CFBD10E4AC2F82C06C2F8301650
:105150009A6842B1C3E9040103E08A420AD1C3E973
:1051600002020848ECE7C3E90201FAE70648E7E76C
:105170000648E5E70648E3E77C0C00200500AD0B98
:10518000007000400000AD0B0C00AD0B0A00AD0B31
:105190000600AD0B2DE9F3414F4CA368002B00F046
:1051A000998094F82E20022A05D0042A30D04B484A
:1051B00002B0BDE8F0814A4D0126C5F800652168BE
:1051C000E26849B1032184F82E10C5F82C36C5F8E1
:1051D00030262E604348EBE7C5F82C36C5F830265C
:1051E0002E6003F016FB08346E6021460220FFF7A4
:1051F00091FD0028F9D03A4B0022C3F80821D3F8DA
:105200000811C3F80C21D3F80C11C3F80025E1E70D
:10521000334D4FF00108C5F80085276857B10522C6
:1052200084F82E20E268C5F82C36C5F83026C5F87B
:105230000080CFE7A18B94F83220019203EB410369
:105240000093C5F82C36C5F83026C5F8008003F069
:10525000E0FA94F836305BBB214D01236B60694660
:105260000220FFF757FD0028F9D00022C5F80821D9
:10527000D5F80831C5F80C21D5F80C31A18B94F87C
:1052800032300B44E1689BB28B42A38321BF164BA3
:10529000A283D3E90201C3E90001114B28BF2261B7
:1052A0004FF000022CBF0F481048C3F800257FE7DD
:1052B000D5F8F465F6B208FA06F6013EBE42CBD93F
:1052C000C5F8048000210420FFF724FD0028F9D050
:1052D0000137F3E706486BE77C0C00200500AD0BB7
:1052E000007000400000AD0B840C00200B00AD0BE3
:1052F0000200AD0BF8B50246FFF7AEFC002851D115
:10530000294E2A4C96F82E3086F82F30072386F83F
:105310002E3001237260C4F80035D4F80453C4F869
:105320000003E3603AB125F0C00545F03305C4F849
:1053300000531F48F8BD00211020FFF7EBFC0028A8
:10534000F9D00023C4F80431D4F80431194BC4F85F
:105350002C3601270223C4F83036276003F059FAAF
:10536000A76000212020FFF7D5FC0028F9D00F4BC3
:105370000022C3F80421D3F80411C3F80821D3F89C
:105380000811C3F8002596F82F1086F82E10C3F8E0
:105390001C21D3F81C11C3F81821D3F81821C3F825
:1053A0000053C6E70448C5E77C0C002000700040AD
:1053B0000000AD0B940C00200B00AD0B7FB56249D3
:1053C000614E3320FFF7A6FC10F0100F05460BD0FE
:1053D0005E4B1022C3F80823B218C3F82C26022211
:1053E000C3F8302601221A60594CAA0694F82E30D0
:1053F0000ED5072B554A05D0D2F834369BB2E36060
:1054000000232361D2F80433DB0601D5FFF732FC19
:10541000A80718D594F82E30A16802910022E168FF
:105420008DF80420062BADF80C1018D0072B35D0C2
:10543000032B08D1454BC3F80025022384F82E30F6
:10544000236801A89847E9074FD594F82E30033B0D
:10545000042B4AD8DFE803F05A4929415E0094F84A
:10546000353023B1236913B1384B01221A60236808
:1054700001A89847374B93E8030086E80300002310
:105480002361A368002BDED1304AC2F80035042323
:1054900084F82E3005238DF80430D1E7FFF7EAFBBE
:1054A00002238DF804306368CBE704238DF80430C1
:1054B00001A823689847254BD3F8F825D20444BFA8
:1054C00001225A602269062384F82E302AB11F4B2C
:1054D0006169C3F82C26C3F8301623692BB903235E
:1054E0008DF8043001A82368984794F82E30072BD4
:1054F0000AD0164B1848D3F8043300211840FFF7A0
:1055000009FC012685094DB904B070BD0F4B01227D
:105510005A60EAE70D4B01229A60E6E795FAA5F397
:10552000B3FA83F306FA03F225EA02055A08DB43CD
:1055300003F001038DF809308DF8046023688DF8BD
:10554000082001A89847DEE7840C00200070004086
:105550007C0C00208C0C0020C0FF3F0038B5EFF31E
:105560001185202383F31288BFF36F8F064B9C684D
:1055700003F06FF985F31188BFF36F8F2046BDE804
:105580003840FCF785BE00BFB40C002038B50A4B8C
:1055900053F82040013053F82050A54200D838BDC0
:1055A000606830B1037FDB0701D403F055F908349C
:1055B000F3E723689847FAE78C97000070B52A4B09
:1055C0002A4C2B4D012286B003201A70FFF7DEFF14
:1055D000FCF768FB0420FFF7D9FF2646AE4204F132
:1055E000300410D300F044FC204C224EAC4226D3B1
:1055F00000F052FC02F043FB1F4A137B23F001032F
:10560000137306B070BD54F80C3C059354F8103C6D
:10561000049354F8143C039354F8183C029354F840
:105620001C3C019354F8203C009354E90A2354E9AC
:105630000C0100F031FA54F8303C5E65CDE7D4E956
:105640000A23B3F1FF3F08BFB2F1FF3F05D052EA92
:105650000301206803D100F0DBFC3034C6E731469B
:10566000183000F06BFEF8E7C60E002038920000FC
:10567000F89200007B8A00007804002008B50348F7
:10568000034A0021121A03F0FEF808BDD8010020D9
:10569000C80E002070B5002386B00122CDE9042396
:1056A000134E144D01930F22CDE9023212491423F7
:1056B00003FB005506EBC01604464FF4C07000FB18
:1056C00004110E4B00954FF4A072304600F0E4F93F
:1056D000737B0B4AEE6023F0040373734FF404638F
:1056E00004FB033313442C746B6006B070BD00BF21
:1056F000F8030020B40C0020402C00204D8900004D
:1057000000240020BFB50020FFF740FF294B83F3A2
:105710000888294C294F636943F4007363610025AD
:10572000E02384F82230E57725766576A57684F83F
:105730002050636A43F4E023636284F82350FCF74B
:1057400023FDFCF7A3FE4FF0FF33A362E362FCF7F7
:1057500063FFFCF7BFFE1A481A4C00F0E9F903F0AA
:1057600064F80120FFF712FF0220FFF70FFF00F09F
:10577000C7FB154B15495C61154B05930123CDE91A
:1057800003534FF480623B46CDE901550095204616
:1057900000F082F9627B064622F004022046627322
:1057A00003F02EF92846FFF775FF3A4631462046AA
:1057B000FCF74EFE402C002000ED00E0BD5500003F
:1057C000F804002078040020B40C0020C02D002034
:1057D000CF9B000038B5064C064D0020AC4200D3EC
:1057E00038BD204603F053F80028F9DB1C34F5E7F8
:1057F000700100207001002073B50C46EFF3118199
:10580000202585F31288BFF36F8FC5685DB12560D1
:105810002B68C360836901338361002081F31188A1
:10582000BFF36F8F11E052EA030603D125606FF0DA
:105830000B00F3E7CDE900230246083000F05EFAE2
:1058400018B9034B9B681B69236002B070BD00BF91
:10585000B40C00202DE9F341044617461E46EFF331
:105860001188202383F31288BFF36F8FC368334AF4
:105870007BB180689168884219D057EA060318D135
:1058800088F31188BFF36F8F6FF00F0002B0BDE88F
:10589000F081916891F90E1021610133E360936802
:1058A000A36088F31188BFF36F8F0020EEE72169B2
:1058B000F2E791F90E1090F90E309942A8BF1946FF
:1058C0006FF07E029142B8BF11468B422DDD03F08E
:1058D00048F80546CDE9007619482246414600F0D1
:1058E0000DFA0028E1D0EFF31186202383F312880C
:1058F000BFF36F8FA068D0B1236821699C420AD0A2
:105900004BB193F90E309942A8BF19466FF07E0350
:105910009942B8BF194603F024F840B1084831460F
:1059200000F080FA6FF00A00B0E70025D2E7002D02
:10593000F4D186F31188BFF36F8FF3E7B40C002026
:10594000C70E0020F8B583680546002B3FD0234AD8
:10595000926893423ED1C368012B03D9013BC360D7
:105960000020F8BDEFF31187202383F31288BFF3E3
:105970006F8F0169806802F0F4FF2C68A54207D19F
:105980000023C5E9023387F31188BFF36F8FE7E780
:10599000002CF5D0D4E9003213605A60637B0026F6
:1059A00023F002036373C4E90066A66004F11800E3
:1059B00003F0BBF8AC6094F90E302B612046A6676B
:1059C00003F01EF80648394600F02CFAC8E76FF0DD
:1059D0001500C6E74FF0FF30C3E700BFB40C00204E
:1059E000C70E002070B5EFF31186202383F31288D1
:1059F000BFF36F8F0468A0421AD0CCB1D4E9003253
:105A000013605A60637B002523F002036373C4E9CB
:105A10000055A56004F1180003F087F82046A5673B
:105A200002F0EEFF31460848BDE8704000F0FAB9D8
:105A3000D0E902329A4218BF0133836086F311889D
:105A4000BFF36F8F70BD00BFC70E002013B5EFF31B
:105A50001181202484F31288BFF36F8F846844B1CE
:105A6000013C846081F31188BFF36F8F002002B086
:105A700010BD52EA030406D181F31188BFF36F8F82
:105A80006FF00F00F3E7CDE900230246014800F074
:105A900035F9ECE7C70E00202DE9F043073285B059
:105AA00022F007020E461F461099017300F15803B9
:105AB0007F32C0E916330446002322F03F0204215E
:105AC000836041733F2A0F98A073C4E90633E373E0
:105AD00006F14009A2F1400805D883F31188BFF30D
